{
	"BlindAuction.sol": {
		"BlindAuction": {
			"abi": [
				{
					"inputs": [
						{
							"internalType": "address payable",
							"name": "_beneficiary",
							"type": "address"
						},
						{
							"internalType": "uint256",
							"name": "_biddingDuration",
							"type": "uint256"
						},
						{
							"internalType": "uint256",
							"name": "_revealDuration",
							"type": "uint256"
						}
					],
					"stateMutability": "nonpayable",
					"type": "constructor"
				},
				{
					"anonymous": false,
					"inputs": [
						{
							"indexed": true,
							"internalType": "address",
							"name": "highestBidder",
							"type": "address"
						},
						{
							"indexed": false,
							"internalType": "uint256",
							"name": "highestBid",
							"type": "uint256"
						}
					],
					"name": "auctionEnded",
					"type": "event"
				},
				{
					"inputs": [
						{
							"internalType": "bytes32",
							"name": "_blindedBid",
							"type": "bytes32"
						}
					],
					"name": "bid",
					"outputs": [],
					"stateMutability": "payable",
					"type": "function"
				},
				{
					"inputs": [],
					"name": "endAuction",
					"outputs": [],
					"stateMutability": "nonpayable",
					"type": "function"
				},
				{
					"inputs": [
						{
							"internalType": "uint256[]",
							"name": "values",
							"type": "uint256[]"
						},
						{
							"internalType": "bool[]",
							"name": "fakes",
							"type": "bool[]"
						},
						{
							"internalType": "bytes32[]",
							"name": "secrets",
							"type": "bytes32[]"
						}
					],
					"name": "reveal",
					"outputs": [],
					"stateMutability": "nonpayable",
					"type": "function"
				}
			],
			"devdoc": {
				"kind": "dev",
				"methods": {},
				"version": 1
			},
			"evm": {
				"assembly": "    /* \"BlindAuction.sol\":60:3622  contract BlindAuction{... */\n  mstore(0x40, 0x80)\n    /* \"BlindAuction.sol\":453:701  constructor(address payable _beneficiary, uint256 _biddingDuration, uint256 _revealDuration){... */\n  callvalue\n  dup1\n  iszero\n  tag_1\n  jumpi\n  revert(0x00, 0x00)\ntag_1:\n  pop\n  mload(0x40)\n  sub(codesize, bytecodeSize)\n  dup1\n  bytecodeSize\n  dup4\n  codecopy\n  dup2\n  dup2\n  add\n  0x40\n  mstore\n  dup2\n  add\n  swap1\n  tag_2\n  swap2\n  swap1\n  tag_3\n  jump\t// in\ntag_2:\n    /* \"BlindAuction.sol\":570:582  _beneficiary */\n  dup3\n    /* \"BlindAuction.sol\":556:567  beneficiary */\n  0x00\n  0x00\n    /* \"BlindAuction.sol\":556:582  beneficiary = _beneficiary */\n  0x0100\n  exp\n  dup2\n  sload\n  dup2\n  0xffffffffffffffffffffffffffffffffffffffff\n  mul\n  not\n  and\n  swap1\n  dup4\n  0xffffffffffffffffffffffffffffffffffffffff\n  and\n  mul\n  or\n  swap1\n  sstore\n  pop\n    /* \"BlindAuction.sol\":624:640  _biddingDuration */\n  dup2\n    /* \"BlindAuction.sol\":606:621  block.timestamp */\n  timestamp\n    /* \"BlindAuction.sol\":606:640  block.timestamp + _biddingDuration */\n  tag_6\n  swap2\n  swap1\n  tag_7\n  jump\t// in\ntag_6:\n    /* \"BlindAuction.sol\":593:603  biddingEnd */\n  0x01\n    /* \"BlindAuction.sol\":593:640  biddingEnd = block.timestamp + _biddingDuration */\n  dup2\n  swap1\n  sstore\n  pop\n    /* \"BlindAuction.sol\":677:692  _revealDuration */\n  dup1\n    /* \"BlindAuction.sol\":664:674  biddingEnd */\n  sload(0x01)\n    /* \"BlindAuction.sol\":664:692  biddingEnd + _revealDuration */\n  tag_8\n  swap2\n  swap1\n  tag_7\n  jump\t// in\ntag_8:\n    /* \"BlindAuction.sol\":652:661  revealEnd */\n  0x02\n    /* \"BlindAuction.sol\":652:692  revealEnd = biddingEnd + _revealDuration */\n  dup2\n  swap1\n  sstore\n  pop\n    /* \"BlindAuction.sol\":453:701  constructor(address payable _beneficiary, uint256 _biddingDuration, uint256 _revealDuration){... */\n  pop\n  pop\n  pop\n    /* \"BlindAuction.sol\":60:3622  contract BlindAuction{... */\n  jump(tag_9)\n    /* \"#utility.yul\":88:205   */\ntag_11:\n    /* \"#utility.yul\":197:198   */\n  0x00\n    /* \"#utility.yul\":194:195   */\n  0x00\n    /* \"#utility.yul\":187:199   */\n  revert\n    /* \"#utility.yul\":334:460   */\ntag_13:\n    /* \"#utility.yul\":371:378   */\n  0x00\n    /* \"#utility.yul\":411:453   */\n  0xffffffffffffffffffffffffffffffffffffffff\n    /* \"#utility.yul\":404:409   */\n  dup3\n    /* \"#utility.yul\":400:454   */\n  and\n    /* \"#utility.yul\":389:454   */\n  swap1\n  pop\n    /* \"#utility.yul\":334:460   */\n  swap2\n  swap1\n  pop\n  jump\t// out\n    /* \"#utility.yul\":466:570   */\ntag_14:\n    /* \"#utility.yul\":511:518   */\n  0x00\n    /* \"#utility.yul\":540:564   */\n  tag_27\n    /* \"#utility.yul\":558:563   */\n  dup3\n    /* \"#utility.yul\":540:564   */\n  tag_13\n  jump\t// in\ntag_27:\n    /* \"#utility.yul\":529:564   */\n  swap1\n  pop\n    /* \"#utility.yul\":466:570   */\n  swap2\n  swap1\n  pop\n  jump\t// out\n    /* \"#utility.yul\":576:714   */\ntag_15:\n    /* \"#utility.yul\":657:689   */\n  tag_29\n    /* \"#utility.yul\":683:688   */\n  dup2\n    /* \"#utility.yul\":657:689   */\n  tag_14\n  jump\t// in\ntag_29:\n    /* \"#utility.yul\":650:655   */\n  dup2\n    /* \"#utility.yul\":647:690   */\n  eq\n    /* \"#utility.yul\":637:708   */\n  tag_30\n  jumpi\n    /* \"#utility.yul\":704:705   */\n  0x00\n    /* \"#utility.yul\":701:702   */\n  0x00\n    /* \"#utility.yul\":694:706   */\n  revert\n    /* \"#utility.yul\":637:708   */\ntag_30:\n    /* \"#utility.yul\":576:714   */\n  pop\n  jump\t// out\n    /* \"#utility.yul\":720:879   */\ntag_16:\n    /* \"#utility.yul\":785:790   */\n  0x00\n    /* \"#utility.yul\":816:822   */\n  dup2\n    /* \"#utility.yul\":810:823   */\n  mload\n    /* \"#utility.yul\":801:823   */\n  swap1\n  pop\n    /* \"#utility.yul\":832:873   */\n  tag_32\n    /* \"#utility.yul\":867:872   */\n  dup2\n    /* \"#utility.yul\":832:873   */\n  tag_15\n  jump\t// in\ntag_32:\n    /* \"#utility.yul\":720:879   */\n  swap3\n  swap2\n  pop\n  pop\n  jump\t// out\n    /* \"#utility.yul\":885:962   */\ntag_17:\n    /* \"#utility.yul\":922:929   */\n  0x00\n    /* \"#utility.yul\":951:956   */\n  dup2\n    /* \"#utility.yul\":940:956   */\n  swap1\n  pop\n    /* \"#utility.yul\":885:962   */\n  swap2\n  swap1\n  pop\n  jump\t// out\n    /* \"#utility.yul\":968:1090   */\ntag_18:\n    /* \"#utility.yul\":1041:1065   */\n  tag_35\n    /* \"#utility.yul\":1059:1064   */\n  dup2\n    /* \"#utility.yul\":1041:1065   */\n  tag_17\n  jump\t// in\ntag_35:\n    /* \"#utility.yul\":1034:1039   */\n  dup2\n    /* \"#utility.yul\":1031:1066   */\n  eq\n    /* \"#utility.yul\":1021:1084   */\n  tag_36\n  jumpi\n    /* \"#utility.yul\":1080:1081   */\n  0x00\n    /* \"#utility.yul\":1077:1078   */\n  0x00\n    /* \"#utility.yul\":1070:1082   */\n  revert\n    /* \"#utility.yul\":1021:1084   */\ntag_36:\n    /* \"#utility.yul\":968:1090   */\n  pop\n  jump\t// out\n    /* \"#utility.yul\":1096:1239   */\ntag_19:\n    /* \"#utility.yul\":1153:1158   */\n  0x00\n    /* \"#utility.yul\":1184:1190   */\n  dup2\n    /* \"#utility.yul\":1178:1191   */\n  mload\n    /* \"#utility.yul\":1169:1191   */\n  swap1\n  pop\n    /* \"#utility.yul\":1200:1233   */\n  tag_38\n    /* \"#utility.yul\":1227:1232   */\n  dup2\n    /* \"#utility.yul\":1200:1233   */\n  tag_18\n  jump\t// in\ntag_38:\n    /* \"#utility.yul\":1096:1239   */\n  swap3\n  swap2\n  pop\n  pop\n  jump\t// out\n    /* \"#utility.yul\":1245:1924   */\ntag_3:\n    /* \"#utility.yul\":1341:1347   */\n  0x00\n    /* \"#utility.yul\":1349:1355   */\n  0x00\n    /* \"#utility.yul\":1357:1363   */\n  0x00\n    /* \"#utility.yul\":1406:1408   */\n  0x60\n    /* \"#utility.yul\":1394:1403   */\n  dup5\n    /* \"#utility.yul\":1385:1392   */\n  dup7\n    /* \"#utility.yul\":1381:1404   */\n  sub\n    /* \"#utility.yul\":1377:1409   */\n  slt\n    /* \"#utility.yul\":1374:1493   */\n  iszero\n  tag_40\n  jumpi\n    /* \"#utility.yul\":1412:1491   */\n  tag_41\n  tag_11\n  jump\t// in\ntag_41:\n    /* \"#utility.yul\":1374:1493   */\ntag_40:\n    /* \"#utility.yul\":1532:1533   */\n  0x00\n    /* \"#utility.yul\":1557:1629   */\n  tag_42\n    /* \"#utility.yul\":1621:1628   */\n  dup7\n    /* \"#utility.yul\":1612:1618   */\n  dup3\n    /* \"#utility.yul\":1601:1610   */\n  dup8\n    /* \"#utility.yul\":1597:1619   */\n  add\n    /* \"#utility.yul\":1557:1629   */\n  tag_16\n  jump\t// in\ntag_42:\n    /* \"#utility.yul\":1547:1629   */\n  swap4\n  pop\n    /* \"#utility.yul\":1503:1639   */\n  pop\n    /* \"#utility.yul\":1678:1680   */\n  0x20\n    /* \"#utility.yul\":1704:1768   */\n  tag_43\n    /* \"#utility.yul\":1760:1767   */\n  dup7\n    /* \"#utility.yul\":1751:1757   */\n  dup3\n    /* \"#utility.yul\":1740:1749   */\n  dup8\n    /* \"#utility.yul\":1736:1758   */\n  add\n    /* \"#utility.yul\":1704:1768   */\n  tag_19\n  jump\t// in\ntag_43:\n    /* \"#utility.yul\":1694:1768   */\n  swap3\n  pop\n    /* \"#utility.yul\":1649:1778   */\n  pop\n    /* \"#utility.yul\":1817:1819   */\n  0x40\n    /* \"#utility.yul\":1843:1907   */\n  tag_44\n    /* \"#utility.yul\":1899:1906   */\n  dup7\n    /* \"#utility.yul\":1890:1896   */\n  dup3\n    /* \"#utility.yul\":1879:1888   */\n  dup8\n    /* \"#utility.yul\":1875:1897   */\n  add\n    /* \"#utility.yul\":1843:1907   */\n  tag_19\n  jump\t// in\ntag_44:\n    /* \"#utility.yul\":1833:1907   */\n  swap2\n  pop\n    /* \"#utility.yul\":1788:1917   */\n  pop\n    /* \"#utility.yul\":1245:1924   */\n  swap3\n  pop\n  swap3\n  pop\n  swap3\n  jump\t// out\n    /* \"#utility.yul\":1930:2110   */\ntag_20:\n    /* \"#utility.yul\":1978:2055   */\n  0x4e487b7100000000000000000000000000000000000000000000000000000000\n    /* \"#utility.yul\":1975:1976   */\n  0x00\n    /* \"#utility.yul\":1968:2056   */\n  mstore\n    /* \"#utility.yul\":2075:2079   */\n  0x11\n    /* \"#utility.yul\":2072:2073   */\n  0x04\n    /* \"#utility.yul\":2065:2080   */\n  mstore\n    /* \"#utility.yul\":2099:2103   */\n  0x24\n    /* \"#utility.yul\":2096:2097   */\n  0x00\n    /* \"#utility.yul\":2089:2104   */\n  revert\n    /* \"#utility.yul\":2116:2307   */\ntag_7:\n    /* \"#utility.yul\":2156:2159   */\n  0x00\n    /* \"#utility.yul\":2175:2195   */\n  tag_47\n    /* \"#utility.yul\":2193:2194   */\n  dup3\n    /* \"#utility.yul\":2175:2195   */\n  tag_17\n  jump\t// in\ntag_47:\n    /* \"#utility.yul\":2170:2195   */\n  swap2\n  pop\n    /* \"#utility.yul\":2209:2229   */\n  tag_48\n    /* \"#utility.yul\":2227:2228   */\n  dup4\n    /* \"#utility.yul\":2209:2229   */\n  tag_17\n  jump\t// in\ntag_48:\n    /* \"#utility.yul\":2204:2229   */\n  swap3\n  pop\n    /* \"#utility.yul\":2252:2253   */\n  dup3\n    /* \"#utility.yul\":2249:2250   */\n  dup3\n    /* \"#utility.yul\":2245:2254   */\n  add\n    /* \"#utility.yul\":2238:2254   */\n  swap1\n  pop\n    /* \"#utility.yul\":2273:2276   */\n  dup1\n    /* \"#utility.yul\":2270:2271   */\n  dup3\n    /* \"#utility.yul\":2267:2277   */\n  gt\n    /* \"#utility.yul\":2264:2300   */\n  iszero\n  tag_49\n  jumpi\n    /* \"#utility.yul\":2280:2298   */\n  tag_50\n  tag_20\n  jump\t// in\ntag_50:\n    /* \"#utility.yul\":2264:2300   */\ntag_49:\n    /* \"#utility.yul\":2116:2307   */\n  swap3\n  swap2\n  pop\n  pop\n  jump\t// out\n    /* \"BlindAuction.sol\":60:3622  contract BlindAuction{... */\ntag_9:\n  dataSize(sub_0)\n  dup1\n  dataOffset(sub_0)\n  0x00\n  codecopy\n  0x00\n  return\nstop\n\nsub_0: assembly {\n        /* \"BlindAuction.sol\":60:3622  contract BlindAuction{... */\n      mstore(0x40, 0x80)\n      jumpi(tag_1, lt(calldatasize, 0x04))\n      shr(0xe0, calldataload(0x00))\n      dup1\n      0x900f080a\n      eq\n      tag_2\n      jumpi\n      dup1\n      0x957bb1e0\n      eq\n      tag_3\n      jumpi\n      dup1\n      0xfe67a54b\n      eq\n      tag_4\n      jumpi\n    tag_1:\n      revert(0x00, 0x00)\n        /* \"BlindAuction.sol\":927:2733  function reveal(uint256[] calldata values, bool[] calldata fakes, bytes32[] calldata secrets) external {... */\n    tag_2:\n      callvalue\n      dup1\n      iszero\n      tag_5\n      jumpi\n      revert(0x00, 0x00)\n    tag_5:\n      pop\n      tag_6\n      0x04\n      dup1\n      calldatasize\n      sub\n      dup2\n      add\n      swap1\n      tag_7\n      swap2\n      swap1\n      tag_8\n      jump\t// in\n    tag_7:\n      tag_9\n      jump\t// in\n    tag_6:\n      stop\n        /* \"BlindAuction.sol\":709:920  function bid(bytes32 _blindedBid) public payable{... */\n    tag_3:\n      tag_10\n      0x04\n      dup1\n      calldatasize\n      sub\n      dup2\n      add\n      swap1\n      tag_11\n      swap2\n      swap1\n      tag_12\n      jump\t// in\n    tag_11:\n      tag_13\n      jump\t// in\n    tag_10:\n      stop\n        /* \"BlindAuction.sol\":2741:3119  function endAuction() public {... */\n    tag_4:\n      callvalue\n      dup1\n      iszero\n      tag_14\n      jumpi\n      revert(0x00, 0x00)\n    tag_14:\n      pop\n      tag_15\n      tag_16\n      jump\t// in\n    tag_15:\n      stop\n        /* \"BlindAuction.sol\":927:2733  function reveal(uint256[] calldata values, bool[] calldata fakes, bytes32[] calldata secrets) external {... */\n    tag_9:\n        /* \"BlindAuction.sol\":1063:1073  biddingEnd */\n      sload(0x01)\n        /* \"BlindAuction.sol\":1045:1060  block.timestamp */\n      timestamp\n        /* \"BlindAuction.sol\":1045:1073  block.timestamp > biddingEnd */\n      gt\n        /* \"BlindAuction.sol\":1045:1104  block.timestamp > biddingEnd && block.timestamp < revealEnd */\n      dup1\n      iszero\n      tag_18\n      jumpi\n      pop\n        /* \"BlindAuction.sol\":1095:1104  revealEnd */\n      sload(0x02)\n        /* \"BlindAuction.sol\":1077:1092  block.timestamp */\n      timestamp\n        /* \"BlindAuction.sol\":1077:1104  block.timestamp < revealEnd */\n      lt\n        /* \"BlindAuction.sol\":1045:1104  block.timestamp > biddingEnd && block.timestamp < revealEnd */\n    tag_18:\n        /* \"BlindAuction.sol\":1037:1124  require(block.timestamp > biddingEnd && block.timestamp < revealEnd, \"not reveal time\") */\n      tag_19\n      jumpi\n      mload(0x40)\n      0x08c379a000000000000000000000000000000000000000000000000000000000\n      dup2\n      mstore\n      0x04\n      add\n      tag_20\n      swap1\n      tag_21\n      jump\t// in\n    tag_20:\n      mload(0x40)\n      dup1\n      swap2\n      sub\n      swap1\n      revert\n    tag_19:\n        /* \"BlindAuction.sol\":1185:1196  uint length */\n      0x00\n        /* \"BlindAuction.sol\":1199:1212  addressToBids */\n      0x04\n        /* \"BlindAuction.sol\":1199:1224  addressToBids[msg.sender] */\n      0x00\n        /* \"BlindAuction.sol\":1213:1223  msg.sender */\n      caller\n        /* \"BlindAuction.sol\":1199:1224  addressToBids[msg.sender] */\n      0xffffffffffffffffffffffffffffffffffffffff\n      and\n      0xffffffffffffffffffffffffffffffffffffffff\n      and\n      dup2\n      mstore\n      0x20\n      add\n      swap1\n      dup2\n      mstore\n      0x20\n      add\n      0x00\n      keccak256\n        /* \"BlindAuction.sol\":1199:1231  addressToBids[msg.sender].length */\n      dup1\n      sload\n      swap1\n      pop\n        /* \"BlindAuction.sol\":1185:1231  uint length = addressToBids[msg.sender].length */\n      swap1\n      pop\n        /* \"BlindAuction.sol\":1271:1277  length */\n      dup1\n        /* \"BlindAuction.sol\":1254:1260  values */\n      dup8\n      dup8\n        /* \"BlindAuction.sol\":1254:1267  values.length */\n      swap1\n      pop\n        /* \"BlindAuction.sol\":1254:1277  values.length == length */\n      eq\n        /* \"BlindAuction.sol\":1246:1304  require(values.length == length, \"Values length mismatch\") */\n      tag_22\n      jumpi\n      mload(0x40)\n      0x08c379a000000000000000000000000000000000000000000000000000000000\n      dup2\n      mstore\n      0x04\n      add\n      tag_23\n      swap1\n      tag_24\n      jump\t// in\n    tag_23:\n      mload(0x40)\n      dup1\n      swap2\n      sub\n      swap1\n      revert\n    tag_22:\n        /* \"BlindAuction.sol\":1335:1341  length */\n      dup1\n        /* \"BlindAuction.sol\":1319:1324  fakes */\n      dup6\n      dup6\n        /* \"BlindAuction.sol\":1319:1331  fakes.length */\n      swap1\n      pop\n        /* \"BlindAuction.sol\":1319:1341  fakes.length == length */\n      eq\n        /* \"BlindAuction.sol\":1311:1367  require(fakes.length == length, \"Fakes length mismatch\") */\n      tag_25\n      jumpi\n      mload(0x40)\n      0x08c379a000000000000000000000000000000000000000000000000000000000\n      dup2\n      mstore\n      0x04\n      add\n      tag_26\n      swap1\n      tag_27\n      jump\t// in\n    tag_26:\n      mload(0x40)\n      dup1\n      swap2\n      sub\n      swap1\n      revert\n    tag_25:\n        /* \"BlindAuction.sol\":1400:1406  length */\n      dup1\n        /* \"BlindAuction.sol\":1382:1389  secrets */\n      dup4\n      dup4\n        /* \"BlindAuction.sol\":1382:1396  secrets.length */\n      swap1\n      pop\n        /* \"BlindAuction.sol\":1382:1406  secrets.length == length */\n      eq\n        /* \"BlindAuction.sol\":1374:1434  require(secrets.length == length, \"Secrets length mismatch\") */\n      tag_28\n      jumpi\n      mload(0x40)\n      0x08c379a000000000000000000000000000000000000000000000000000000000\n      dup2\n      mstore\n      0x04\n      add\n      tag_29\n      swap1\n      tag_30\n      jump\t// in\n    tag_29:\n      mload(0x40)\n      dup1\n      swap2\n      sub\n      swap1\n      revert\n    tag_28:\n        /* \"BlindAuction.sol\":1490:1504  uint256 refund */\n      0x00\n        /* \"BlindAuction.sol\":1554:1560  uint i */\n      0x00\n        /* \"BlindAuction.sol\":1563:1564  0 */\n      0x00\n        /* \"BlindAuction.sol\":1554:1564  uint i = 0 */\n      swap1\n      pop\n        /* \"BlindAuction.sol\":1550:2557  for(uint i = 0 ; i < values.length; i++){... */\n    tag_31:\n        /* \"BlindAuction.sol\":1571:1577  values */\n      dup9\n      dup9\n        /* \"BlindAuction.sol\":1571:1584  values.length */\n      swap1\n      pop\n        /* \"BlindAuction.sol\":1567:1568  i */\n      dup2\n        /* \"BlindAuction.sol\":1567:1584  i < values.length */\n      lt\n        /* \"BlindAuction.sol\":1550:2557  for(uint i = 0 ; i < values.length; i++){... */\n      iszero\n      tag_32\n      jumpi\n        /* \"BlindAuction.sol\":1601:1622  Bid memory bidToCheck */\n      0x00\n        /* \"BlindAuction.sol\":1625:1638  addressToBids */\n      0x04\n        /* \"BlindAuction.sol\":1625:1650  addressToBids[msg.sender] */\n      0x00\n        /* \"BlindAuction.sol\":1639:1649  msg.sender */\n      caller\n        /* \"BlindAuction.sol\":1625:1650  addressToBids[msg.sender] */\n      0xffffffffffffffffffffffffffffffffffffffff\n      and\n      0xffffffffffffffffffffffffffffffffffffffff\n      and\n      dup2\n      mstore\n      0x20\n      add\n      swap1\n      dup2\n      mstore\n      0x20\n      add\n      0x00\n      keccak256\n        /* \"BlindAuction.sol\":1651:1652  i */\n      dup3\n        /* \"BlindAuction.sol\":1625:1653  addressToBids[msg.sender][i] */\n      dup2\n      sload\n      dup2\n      lt\n      tag_34\n      jumpi\n      tag_35\n      tag_36\n      jump\t// in\n    tag_35:\n    tag_34:\n      swap1\n      0x00\n      mstore\n      keccak256(0x00, 0x20)\n      swap1\n      0x02\n      mul\n      add\n        /* \"BlindAuction.sol\":1601:1653  Bid memory bidToCheck = addressToBids[msg.sender][i] */\n      mload(0x40)\n      dup1\n      0x40\n      add\n      0x40\n      mstore\n      swap1\n      dup2\n      0x00\n      dup3\n      add\n      sload\n      dup2\n      mstore\n      0x20\n      add\n      0x01\n      dup3\n      add\n      sload\n      dup2\n      mstore\n      pop\n      pop\n      swap1\n      pop\n        /* \"BlindAuction.sol\":1784:1790  values */\n      dup10\n      dup10\n        /* \"BlindAuction.sol\":1791:1792  i */\n      dup4\n        /* \"BlindAuction.sol\":1784:1793  values[i] */\n      dup2\n      dup2\n      lt\n      tag_38\n      jumpi\n      tag_39\n      tag_36\n      jump\t// in\n    tag_39:\n    tag_38:\n      swap1\n      pop\n      0x20\n      mul\n      add\n      calldataload\n        /* \"BlindAuction.sol\":1795:1800  fakes */\n      dup9\n      dup9\n        /* \"BlindAuction.sol\":1801:1802  i */\n      dup5\n        /* \"BlindAuction.sol\":1795:1803  fakes[i] */\n      dup2\n      dup2\n      lt\n      tag_40\n      jumpi\n      tag_41\n      tag_36\n      jump\t// in\n    tag_41:\n    tag_40:\n      swap1\n      pop\n      0x20\n      mul\n      add\n      0x20\n      dup2\n      add\n      swap1\n      tag_42\n      swap2\n      swap1\n      tag_43\n      jump\t// in\n    tag_42:\n        /* \"BlindAuction.sol\":1805:1812  secrets */\n      dup8\n      dup8\n        /* \"BlindAuction.sol\":1813:1814  i */\n      dup6\n        /* \"BlindAuction.sol\":1805:1815  secrets[i] */\n      dup2\n      dup2\n      lt\n      tag_44\n      jumpi\n      tag_45\n      tag_36\n      jump\t// in\n    tag_45:\n    tag_44:\n      swap1\n      pop\n      0x20\n      mul\n      add\n      calldataload\n        /* \"BlindAuction.sol\":1767:1816  abi.encodePacked(values[i], fakes[i], secrets[i]) */\n      add(0x20, mload(0x40))\n      tag_46\n      swap4\n      swap3\n      swap2\n      swap1\n      tag_47\n      jump\t// in\n    tag_46:\n      mload(0x40)\n      0x20\n      dup2\n      dup4\n      sub\n      sub\n      dup2\n      mstore\n      swap1\n      0x40\n      mstore\n        /* \"BlindAuction.sol\":1757:1817  keccak256(abi.encodePacked(values[i], fakes[i], secrets[i])) */\n      dup1\n      mload\n      swap1\n      0x20\n      add\n      keccak256\n        /* \"BlindAuction.sol\":1732:1742  bidToCheck */\n      dup2\n        /* \"BlindAuction.sol\":1732:1753  bidToCheck.blindedBid */\n      0x00\n      add\n      mload\n        /* \"BlindAuction.sol\":1732:1817  bidToCheck.blindedBid == keccak256(abi.encodePacked(values[i], fakes[i], secrets[i])) */\n      sub\n        /* \"BlindAuction.sol\":1729:2487  if(bidToCheck.blindedBid == keccak256(abi.encodePacked(values[i], fakes[i], secrets[i]))){... */\n      tag_48\n      jumpi\n        /* \"BlindAuction.sol\":1837:1842  fakes */\n      dup8\n      dup8\n        /* \"BlindAuction.sol\":1843:1844  i */\n      dup4\n        /* \"BlindAuction.sol\":1837:1845  fakes[i] */\n      dup2\n      dup2\n      lt\n      tag_49\n      jumpi\n      tag_50\n      tag_36\n      jump\t// in\n    tag_50:\n    tag_49:\n      swap1\n      pop\n      0x20\n      mul\n      add\n      0x20\n      dup2\n      add\n      swap1\n      tag_51\n      swap2\n      swap1\n      tag_43\n      jump\t// in\n    tag_51:\n        /* \"BlindAuction.sol\":1836:1845  !fakes[i] */\n      iszero\n        /* \"BlindAuction.sol\":1836:1880  !fakes[i] && bidToCheck.deposit >= values[i] */\n      dup1\n      iszero\n      tag_52\n      jumpi\n      pop\n        /* \"BlindAuction.sol\":1871:1877  values */\n      dup10\n      dup10\n        /* \"BlindAuction.sol\":1878:1879  i */\n      dup4\n        /* \"BlindAuction.sol\":1871:1880  values[i] */\n      dup2\n      dup2\n      lt\n      tag_53\n      jumpi\n      tag_54\n      tag_36\n      jump\t// in\n    tag_54:\n    tag_53:\n      swap1\n      pop\n      0x20\n      mul\n      add\n      calldataload\n        /* \"BlindAuction.sol\":1849:1859  bidToCheck */\n      dup2\n        /* \"BlindAuction.sol\":1849:1867  bidToCheck.deposit */\n      0x20\n      add\n      mload\n        /* \"BlindAuction.sol\":1849:1880  bidToCheck.deposit >= values[i] */\n      lt\n      iszero\n        /* \"BlindAuction.sol\":1836:1880  !fakes[i] && bidToCheck.deposit >= values[i] */\n    tag_52:\n        /* \"BlindAuction.sol\":1833:2476  if(!fakes[i] && bidToCheck.deposit >= values[i]){... */\n      iszero\n      tag_55\n      jumpi\n        /* \"BlindAuction.sol\":1973:2004  placeBid(msg.sender, values[i]) */\n      tag_56\n        /* \"BlindAuction.sol\":1982:1992  msg.sender */\n      caller\n        /* \"BlindAuction.sol\":1994:2000  values */\n      dup12\n      dup12\n        /* \"BlindAuction.sol\":2001:2002  i */\n      dup6\n        /* \"BlindAuction.sol\":1994:2003  values[i] */\n      dup2\n      dup2\n      lt\n      tag_57\n      jumpi\n      tag_58\n      tag_36\n      jump\t// in\n    tag_58:\n    tag_57:\n      swap1\n      pop\n      0x20\n      mul\n      add\n      calldataload\n        /* \"BlindAuction.sol\":1973:1981  placeBid */\n      tag_59\n        /* \"BlindAuction.sol\":1973:2004  placeBid(msg.sender, values[i]) */\n      jump\t// in\n    tag_56:\n        /* \"BlindAuction.sol\":1969:2321  if (placeBid(msg.sender, values[i])) {... */\n      iszero\n      tag_60\n      jumpi\n        /* \"BlindAuction.sol\":2141:2147  values */\n      dup10\n      dup10\n        /* \"BlindAuction.sol\":2148:2149  i */\n      dup4\n        /* \"BlindAuction.sol\":2141:2150  values[i] */\n      dup2\n      dup2\n      lt\n      tag_61\n      jumpi\n      tag_62\n      tag_36\n      jump\t// in\n    tag_62:\n    tag_61:\n      swap1\n      pop\n      0x20\n      mul\n      add\n      calldataload\n        /* \"BlindAuction.sol\":2120:2130  bidToCheck */\n      dup2\n        /* \"BlindAuction.sol\":2120:2138  bidToCheck.deposit */\n      0x20\n      add\n      mload\n        /* \"BlindAuction.sol\":2120:2150  bidToCheck.deposit - values[i] */\n      tag_63\n      swap2\n      swap1\n      tag_64\n      jump\t// in\n    tag_63:\n        /* \"BlindAuction.sol\":2110:2150  refund += bidToCheck.deposit - values[i] */\n      dup4\n      tag_65\n      swap2\n      swap1\n      tag_66\n      jump\t// in\n    tag_65:\n      swap3\n      pop\n        /* \"BlindAuction.sol\":1969:2321  if (placeBid(msg.sender, values[i])) {... */\n      jump(tag_67)\n    tag_60:\n        /* \"BlindAuction.sol\":2283:2293  bidToCheck */\n      dup1\n        /* \"BlindAuction.sol\":2283:2301  bidToCheck.deposit */\n      0x20\n      add\n      mload\n        /* \"BlindAuction.sol\":2273:2301  refund += bidToCheck.deposit */\n      dup4\n      tag_68\n      swap2\n      swap1\n      tag_66\n      jump\t// in\n    tag_68:\n      swap3\n      pop\n        /* \"BlindAuction.sol\":1969:2321  if (placeBid(msg.sender, values[i])) {... */\n    tag_67:\n        /* \"BlindAuction.sol\":1833:2476  if(!fakes[i] && bidToCheck.deposit >= values[i]){... */\n      jump(tag_69)\n    tag_55:\n        /* \"BlindAuction.sol\":2441:2451  bidToCheck */\n      dup1\n        /* \"BlindAuction.sol\":2441:2459  bidToCheck.deposit */\n      0x20\n      add\n      mload\n        /* \"BlindAuction.sol\":2431:2459  refund += bidToCheck.deposit */\n      dup4\n      tag_70\n      swap2\n      swap1\n      tag_66\n      jump\t// in\n    tag_70:\n      swap3\n      pop\n        /* \"BlindAuction.sol\":1833:2476  if(!fakes[i] && bidToCheck.deposit >= values[i]){... */\n    tag_69:\n        /* \"BlindAuction.sol\":1729:2487  if(bidToCheck.blindedBid == keccak256(abi.encodePacked(values[i], fakes[i], secrets[i]))){... */\n    tag_48:\n        /* \"BlindAuction.sol\":2547:2548  0 */\n      0x00\n        /* \"BlindAuction.sol\":2539:2549  bytes32(0) */\n      0x00\n      shl\n        /* \"BlindAuction.sol\":2497:2510  addressToBids */\n      0x04\n        /* \"BlindAuction.sol\":2497:2522  addressToBids[msg.sender] */\n      0x00\n        /* \"BlindAuction.sol\":2511:2521  msg.sender */\n      caller\n        /* \"BlindAuction.sol\":2497:2522  addressToBids[msg.sender] */\n      0xffffffffffffffffffffffffffffffffffffffff\n      and\n      0xffffffffffffffffffffffffffffffffffffffff\n      and\n      dup2\n      mstore\n      0x20\n      add\n      swap1\n      dup2\n      mstore\n      0x20\n      add\n      0x00\n      keccak256\n        /* \"BlindAuction.sol\":2523:2524  i */\n      dup4\n        /* \"BlindAuction.sol\":2497:2525  addressToBids[msg.sender][i] */\n      dup2\n      sload\n      dup2\n      lt\n      tag_71\n      jumpi\n      tag_72\n      tag_36\n      jump\t// in\n    tag_72:\n    tag_71:\n      swap1\n      0x00\n      mstore\n      keccak256(0x00, 0x20)\n      swap1\n      0x02\n      mul\n      add\n        /* \"BlindAuction.sol\":2497:2536  addressToBids[msg.sender][i].blindedBid */\n      0x00\n      add\n        /* \"BlindAuction.sol\":2497:2549  addressToBids[msg.sender][i].blindedBid = bytes32(0) */\n      dup2\n      swap1\n      sstore\n      pop\n        /* \"BlindAuction.sol\":1590:2557  {... */\n      pop\n        /* \"BlindAuction.sol\":1586:1589  i++ */\n      dup1\n      dup1\n      0x01\n      add\n      swap2\n      pop\n      pop\n        /* \"BlindAuction.sol\":1550:2557  for(uint i = 0 ; i < values.length; i++){... */\n      jump(tag_31)\n    tag_32:\n      pop\n        /* \"BlindAuction.sol\":2611:2623  bool success */\n      0x00\n        /* \"BlindAuction.sol\":2637:2647  msg.sender */\n      caller\n        /* \"BlindAuction.sol\":2629:2653  payable(msg.sender).call */\n      0xffffffffffffffffffffffffffffffffffffffff\n      and\n        /* \"BlindAuction.sol\":2661:2667  refund */\n      dup3\n        /* \"BlindAuction.sol\":2629:2672  payable(msg.sender).call{value: refund}(\"\") */\n      mload(0x40)\n      tag_74\n      swap1\n      tag_75\n      jump\t// in\n    tag_74:\n      0x00\n      mload(0x40)\n      dup1\n      dup4\n      sub\n      dup2\n      dup6\n      dup8\n      gas\n      call\n      swap3\n      pop\n      pop\n      pop\n      returndatasize\n      dup1\n      0x00\n      dup2\n      eq\n      tag_78\n      jumpi\n      mload(0x40)\n      swap2\n      pop\n      and(add(returndatasize, 0x3f), not(0x1f))\n      dup3\n      add\n      0x40\n      mstore\n      returndatasize\n      dup3\n      mstore\n      returndatasize\n      0x00\n      0x20\n      dup5\n      add\n      returndatacopy\n      jump(tag_77)\n    tag_78:\n      0x60\n      swap2\n      pop\n    tag_77:\n      pop\n        /* \"BlindAuction.sol\":2610:2672  (bool success, ) = payable(msg.sender).call{value: refund}(\"\") */\n      pop\n      swap1\n      pop\n        /* \"BlindAuction.sol\":2687:2694  success */\n      dup1\n        /* \"BlindAuction.sol\":2679:2724  require(success, \"transaction not succesful\") */\n      tag_79\n      jumpi\n      mload(0x40)\n      0x08c379a000000000000000000000000000000000000000000000000000000000\n      dup2\n      mstore\n      0x04\n      add\n      tag_80\n      swap1\n      tag_81\n      jump\t// in\n    tag_80:\n      mload(0x40)\n      dup1\n      swap2\n      sub\n      swap1\n      revert\n    tag_79:\n        /* \"BlindAuction.sol\":1030:2733  {... */\n      pop\n      pop\n      pop\n        /* \"BlindAuction.sol\":927:2733  function reveal(uint256[] calldata values, bool[] calldata fakes, bytes32[] calldata secrets) external {... */\n      pop\n      pop\n      pop\n      pop\n      pop\n      pop\n      jump\t// out\n        /* \"BlindAuction.sol\":709:920  function bid(bytes32 _blindedBid) public payable{... */\n    tag_13:\n        /* \"BlindAuction.sol\":794:804  biddingEnd */\n      sload(0x01)\n        /* \"BlindAuction.sol\":776:791  block.timestamp */\n      timestamp\n        /* \"BlindAuction.sol\":776:804  block.timestamp < biddingEnd */\n      lt\n        /* \"BlindAuction.sol\":768:818  require(block.timestamp < biddingEnd, \"bid ended\") */\n      tag_83\n      jumpi\n      mload(0x40)\n      0x08c379a000000000000000000000000000000000000000000000000000000000\n      dup2\n      mstore\n      0x04\n      add\n      tag_84\n      swap1\n      tag_85\n      jump\t// in\n    tag_84:\n      mload(0x40)\n      dup1\n      swap2\n      sub\n      swap1\n      revert\n    tag_83:\n        /* \"BlindAuction.sol\":829:842  addressToBids */\n      0x04\n        /* \"BlindAuction.sol\":829:854  addressToBids[msg.sender] */\n      0x00\n        /* \"BlindAuction.sol\":843:853  msg.sender */\n      caller\n        /* \"BlindAuction.sol\":829:854  addressToBids[msg.sender] */\n      0xffffffffffffffffffffffffffffffffffffffff\n      and\n      0xffffffffffffffffffffffffffffffffffffffff\n      and\n      dup2\n      mstore\n      0x20\n      add\n      swap1\n      dup2\n      mstore\n      0x20\n      add\n      0x00\n      keccak256\n        /* \"BlindAuction.sol\":860:910  Bid({blindedBid: _blindedBid, deposit: msg.value}) */\n      mload(0x40)\n      dup1\n      0x40\n      add\n      0x40\n      mstore\n      dup1\n        /* \"BlindAuction.sol\":877:888  _blindedBid */\n      dup4\n        /* \"BlindAuction.sol\":860:910  Bid({blindedBid: _blindedBid, deposit: msg.value}) */\n      dup2\n      mstore\n      0x20\n      add\n        /* \"BlindAuction.sol\":899:908  msg.value */\n      callvalue\n        /* \"BlindAuction.sol\":860:910  Bid({blindedBid: _blindedBid, deposit: msg.value}) */\n      dup2\n      mstore\n      pop\n        /* \"BlindAuction.sol\":829:911  addressToBids[msg.sender].push(Bid({blindedBid: _blindedBid, deposit: msg.value})) */\n      swap1\n      dup1\n      0x01\n      dup2\n      sload\n      add\n      dup1\n      dup3\n      sstore\n      dup1\n      swap2\n      pop\n      pop\n      0x01\n      swap1\n      sub\n      swap1\n      0x00\n      mstore\n      keccak256(0x00, 0x20)\n      swap1\n      0x02\n      mul\n      add\n      0x00\n      swap1\n      swap2\n      swap1\n      swap2\n      swap1\n      swap2\n      pop\n      0x00\n      dup3\n      add\n      mload\n      dup2\n      0x00\n      add\n      sstore\n      0x20\n      dup3\n      add\n      mload\n      dup2\n      0x01\n      add\n      sstore\n      pop\n      pop\n        /* \"BlindAuction.sol\":709:920  function bid(bytes32 _blindedBid) public payable{... */\n      pop\n      jump\t// out\n        /* \"BlindAuction.sol\":2741:3119  function endAuction() public {... */\n    tag_16:\n        /* \"BlindAuction.sol\":2798:2803  false */\n      0x00\n        /* \"BlindAuction.sol\":2789:2803  ended == false */\n      iszero\n      iszero\n        /* \"BlindAuction.sol\":2789:2794  ended */\n      0x03\n      0x00\n      swap1\n      sload\n      swap1\n      0x0100\n      exp\n      swap1\n      div\n      0xff\n      and\n        /* \"BlindAuction.sol\":2789:2803  ended == false */\n      iszero\n      iszero\n      eq\n        /* \"BlindAuction.sol\":2781:2829  require(ended == false, \"Auction already ended\") */\n      tag_88\n      jumpi\n      mload(0x40)\n      0x08c379a000000000000000000000000000000000000000000000000000000000\n      dup2\n      mstore\n      0x04\n      add\n      tag_89\n      swap1\n      tag_90\n      jump\t// in\n    tag_89:\n      mload(0x40)\n      dup1\n      swap2\n      sub\n      swap1\n      revert\n    tag_88:\n        /* \"BlindAuction.sol\":2867:2876  revealEnd */\n      sload(0x02)\n        /* \"BlindAuction.sol\":2848:2863  block.timestamp */\n      timestamp\n        /* \"BlindAuction.sol\":2848:2876  block.timestamp >= revealEnd */\n      lt\n      iszero\n        /* \"BlindAuction.sol\":2840:2902  require(block.timestamp >= revealEnd, \"Auction not ended yet\") */\n      tag_91\n      jumpi\n      mload(0x40)\n      0x08c379a000000000000000000000000000000000000000000000000000000000\n      dup2\n      mstore\n      0x04\n      add\n      tag_92\n      swap1\n      tag_93\n      jump\t// in\n    tag_92:\n      mload(0x40)\n      dup1\n      swap2\n      sub\n      swap1\n      revert\n    tag_91:\n        /* \"BlindAuction.sol\":2914:2926  bool success */\n      0x00\n        /* \"BlindAuction.sol\":2940:2951  beneficiary */\n      0x00\n      0x00\n      swap1\n      sload\n      swap1\n      0x0100\n      exp\n      swap1\n      div\n      0xffffffffffffffffffffffffffffffffffffffff\n      and\n        /* \"BlindAuction.sol\":2932:2957  payable(beneficiary).call */\n      0xffffffffffffffffffffffffffffffffffffffff\n      and\n        /* \"BlindAuction.sol\":2965:2975  highestBid */\n      sload(0x05)\n        /* \"BlindAuction.sol\":2932:2980  payable(beneficiary).call{value: highestBid}(\"\") */\n      mload(0x40)\n      tag_94\n      swap1\n      tag_75\n      jump\t// in\n    tag_94:\n      0x00\n      mload(0x40)\n      dup1\n      dup4\n      sub\n      dup2\n      dup6\n      dup8\n      gas\n      call\n      swap3\n      pop\n      pop\n      pop\n      returndatasize\n      dup1\n      0x00\n      dup2\n      eq\n      tag_97\n      jumpi\n      mload(0x40)\n      swap2\n      pop\n      and(add(returndatasize, 0x3f), not(0x1f))\n      dup3\n      add\n      0x40\n      mstore\n      returndatasize\n      dup3\n      mstore\n      returndatasize\n      0x00\n      0x20\n      dup5\n      add\n      returndatacopy\n      jump(tag_96)\n    tag_97:\n      0x60\n      swap2\n      pop\n    tag_96:\n      pop\n        /* \"BlindAuction.sol\":2913:2980  (bool success, ) = payable(beneficiary).call{value: highestBid}(\"\") */\n      pop\n      swap1\n      pop\n        /* \"BlindAuction.sol\":2999:3006  success */\n      dup1\n        /* \"BlindAuction.sol\":2991:3032  require(success, \"transfer unsuccessful\") */\n      tag_98\n      jumpi\n      mload(0x40)\n      0x08c379a000000000000000000000000000000000000000000000000000000000\n      dup2\n      mstore\n      0x04\n      add\n      tag_99\n      swap1\n      tag_100\n      jump\t// in\n    tag_99:\n      mload(0x40)\n      dup1\n      swap2\n      sub\n      swap1\n      revert\n    tag_98:\n        /* \"BlindAuction.sol\":3051:3055  true */\n      0x01\n        /* \"BlindAuction.sol\":3043:3048  ended */\n      0x03\n      0x00\n        /* \"BlindAuction.sol\":3043:3055  ended = true */\n      0x0100\n      exp\n      dup2\n      sload\n      dup2\n      0xff\n      mul\n      not\n      and\n      swap1\n      dup4\n      iszero\n      iszero\n      mul\n      or\n      swap1\n      sstore\n      pop\n        /* \"BlindAuction.sol\":3085:3098  highestBidder */\n      0x06\n      0x00\n      swap1\n      sload\n      swap1\n      0x0100\n      exp\n      swap1\n      div\n      0xffffffffffffffffffffffffffffffffffffffff\n      and\n        /* \"BlindAuction.sol\":3072:3111  auctionEnded(highestBidder, highestBid) */\n      0xffffffffffffffffffffffffffffffffffffffff\n      and\n      0x6e0e2174dbf7b77c08b6f9a2799b9feda84a6d54a5644864582040100a47d4c5\n        /* \"BlindAuction.sol\":3100:3110  highestBid */\n      sload(0x05)\n        /* \"BlindAuction.sol\":3072:3111  auctionEnded(highestBidder, highestBid) */\n      mload(0x40)\n      tag_101\n      swap2\n      swap1\n      tag_102\n      jump\t// in\n    tag_101:\n      mload(0x40)\n      dup1\n      swap2\n      sub\n      swap1\n      log2\n        /* \"BlindAuction.sol\":2770:3119  {... */\n      pop\n        /* \"BlindAuction.sol\":2741:3119  function endAuction() public {... */\n      jump\t// out\n        /* \"BlindAuction.sol\":3127:3619  function placeBid(address _bidder, uint256 _bid) internal returns(bool){... */\n    tag_59:\n        /* \"BlindAuction.sol\":3193:3197  bool */\n      0x00\n        /* \"BlindAuction.sol\":3219:3229  highestBid */\n      sload(0x05)\n        /* \"BlindAuction.sol\":3212:3216  _bid */\n      dup3\n        /* \"BlindAuction.sol\":3212:3229  _bid > highestBid */\n      gt\n        /* \"BlindAuction.sol\":3209:3612  if(_bid > highestBid){... */\n      iszero\n      tag_104\n      jumpi\n        /* \"BlindAuction.sol\":3274:3275  0 */\n      0x00\n        /* \"BlindAuction.sol\":3249:3276  highestBidder != address(0) */\n      0xffffffffffffffffffffffffffffffffffffffff\n      and\n        /* \"BlindAuction.sol\":3249:3262  highestBidder */\n      0x06\n      0x00\n      swap1\n      sload\n      swap1\n      0x0100\n      exp\n      swap1\n      div\n      0xffffffffffffffffffffffffffffffffffffffff\n      and\n        /* \"BlindAuction.sol\":3249:3276  highestBidder != address(0) */\n      0xffffffffffffffffffffffffffffffffffffffff\n      and\n      eq\n        /* \"BlindAuction.sol\":3245:3457  if (highestBidder != address(0)) {... */\n      tag_105\n      jumpi\n        /* \"BlindAuction.sol\":3294:3306  bool success */\n      0x00\n        /* \"BlindAuction.sol\":3320:3333  highestBidder */\n      0x06\n      0x00\n      swap1\n      sload\n      swap1\n      0x0100\n      exp\n      swap1\n      div\n      0xffffffffffffffffffffffffffffffffffffffff\n      and\n        /* \"BlindAuction.sol\":3312:3339  payable(highestBidder).call */\n      0xffffffffffffffffffffffffffffffffffffffff\n      and\n        /* \"BlindAuction.sol\":3347:3357  highestBid */\n      sload(0x05)\n        /* \"BlindAuction.sol\":3312:3362  payable(highestBidder).call{value: highestBid}(\"\") */\n      mload(0x40)\n      tag_106\n      swap1\n      tag_75\n      jump\t// in\n    tag_106:\n      0x00\n      mload(0x40)\n      dup1\n      dup4\n      sub\n      dup2\n      dup6\n      dup8\n      gas\n      call\n      swap3\n      pop\n      pop\n      pop\n      returndatasize\n      dup1\n      0x00\n      dup2\n      eq\n      tag_109\n      jumpi\n      mload(0x40)\n      swap2\n      pop\n      and(add(returndatasize, 0x3f), not(0x1f))\n      dup3\n      add\n      0x40\n      mstore\n      returndatasize\n      dup3\n      mstore\n      returndatasize\n      0x00\n      0x20\n      dup5\n      add\n      returndatacopy\n      jump(tag_108)\n    tag_109:\n      0x60\n      swap2\n      pop\n    tag_108:\n      pop\n        /* \"BlindAuction.sol\":3293:3362  (bool success, ) = payable(highestBidder).call{value: highestBid}(\"\") */\n      pop\n      swap1\n      pop\n        /* \"BlindAuction.sol\":3385:3392  success */\n      dup1\n        /* \"BlindAuction.sol\":3377:3410  require(success, \"Refund failed\") */\n      tag_110\n      jumpi\n      mload(0x40)\n      0x08c379a000000000000000000000000000000000000000000000000000000000\n      dup2\n      mstore\n      0x04\n      add\n      tag_111\n      swap1\n      tag_112\n      jump\t// in\n    tag_111:\n      mload(0x40)\n      dup1\n      swap2\n      sub\n      swap1\n      revert\n    tag_110:\n        /* \"BlindAuction.sol\":3278:3457  {... */\n      pop\n        /* \"BlindAuction.sol\":3245:3457  if (highestBidder != address(0)) {... */\n    tag_105:\n        /* \"BlindAuction.sol\":3485:3489  _bid */\n      dup2\n        /* \"BlindAuction.sol\":3472:3482  highestBid */\n      0x05\n        /* \"BlindAuction.sol\":3472:3489  highestBid = _bid */\n      dup2\n      swap1\n      sstore\n      pop\n        /* \"BlindAuction.sol\":3520:3527  _bidder */\n      dup3\n        /* \"BlindAuction.sol\":3504:3517  highestBidder */\n      0x06\n      0x00\n        /* \"BlindAuction.sol\":3504:3527  highestBidder = _bidder */\n      0x0100\n      exp\n      dup2\n      sload\n      dup2\n      0xffffffffffffffffffffffffffffffffffffffff\n      mul\n      not\n      and\n      swap1\n      dup4\n      0xffffffffffffffffffffffffffffffffffffffff\n      and\n      mul\n      or\n      swap1\n      sstore\n      pop\n        /* \"BlindAuction.sol\":3550:3554  true */\n      0x01\n        /* \"BlindAuction.sol\":3543:3554  return true */\n      swap1\n      pop\n      jump(tag_103)\n        /* \"BlindAuction.sol\":3209:3612  if(_bid > highestBid){... */\n    tag_104:\n        /* \"BlindAuction.sol\":3595:3600  false */\n      0x00\n        /* \"BlindAuction.sol\":3588:3600  return false */\n      swap1\n      pop\n        /* \"BlindAuction.sol\":3127:3619  function placeBid(address _bidder, uint256 _bid) internal returns(bool){... */\n    tag_103:\n      swap3\n      swap2\n      pop\n      pop\n      jump\t// out\n        /* \"#utility.yul\":88:205   */\n    tag_115:\n        /* \"#utility.yul\":197:198   */\n      0x00\n        /* \"#utility.yul\":194:195   */\n      0x00\n        /* \"#utility.yul\":187:199   */\n      revert\n        /* \"#utility.yul\":211:328   */\n    tag_116:\n        /* \"#utility.yul\":320:321   */\n      0x00\n        /* \"#utility.yul\":317:318   */\n      0x00\n        /* \"#utility.yul\":310:322   */\n      revert\n        /* \"#utility.yul\":334:451   */\n    tag_117:\n        /* \"#utility.yul\":443:444   */\n      0x00\n        /* \"#utility.yul\":440:441   */\n      0x00\n        /* \"#utility.yul\":433:445   */\n      revert\n        /* \"#utility.yul\":457:574   */\n    tag_118:\n        /* \"#utility.yul\":566:567   */\n      0x00\n        /* \"#utility.yul\":563:564   */\n      0x00\n        /* \"#utility.yul\":556:568   */\n      revert\n        /* \"#utility.yul\":580:697   */\n    tag_119:\n        /* \"#utility.yul\":689:690   */\n      0x00\n        /* \"#utility.yul\":686:687   */\n      0x00\n        /* \"#utility.yul\":679:691   */\n      revert\n        /* \"#utility.yul\":720:1288   */\n    tag_120:\n        /* \"#utility.yul\":793:801   */\n      0x00\n        /* \"#utility.yul\":803:809   */\n      0x00\n        /* \"#utility.yul\":853:856   */\n      dup4\n        /* \"#utility.yul\":846:850   */\n      0x1f\n        /* \"#utility.yul\":838:844   */\n      dup5\n        /* \"#utility.yul\":834:851   */\n      add\n        /* \"#utility.yul\":830:857   */\n      slt\n        /* \"#utility.yul\":820:942   */\n      tag_172\n      jumpi\n        /* \"#utility.yul\":861:940   */\n      tag_173\n      tag_117\n      jump\t// in\n    tag_173:\n        /* \"#utility.yul\":820:942   */\n    tag_172:\n        /* \"#utility.yul\":974:980   */\n      dup3\n        /* \"#utility.yul\":961:981   */\n      calldataload\n        /* \"#utility.yul\":951:981   */\n      swap1\n      pop\n        /* \"#utility.yul\":1004:1022   */\n      0xffffffffffffffff\n        /* \"#utility.yul\":996:1002   */\n      dup2\n        /* \"#utility.yul\":993:1023   */\n      gt\n        /* \"#utility.yul\":990:1107   */\n      iszero\n      tag_174\n      jumpi\n        /* \"#utility.yul\":1026:1105   */\n      tag_175\n      tag_118\n      jump\t// in\n    tag_175:\n        /* \"#utility.yul\":990:1107   */\n    tag_174:\n        /* \"#utility.yul\":1140:1144   */\n      0x20\n        /* \"#utility.yul\":1132:1138   */\n      dup4\n        /* \"#utility.yul\":1128:1145   */\n      add\n        /* \"#utility.yul\":1116:1145   */\n      swap2\n      pop\n        /* \"#utility.yul\":1194:1197   */\n      dup4\n        /* \"#utility.yul\":1186:1190   */\n      0x20\n        /* \"#utility.yul\":1178:1184   */\n      dup3\n        /* \"#utility.yul\":1174:1191   */\n      mul\n        /* \"#utility.yul\":1164:1172   */\n      dup4\n        /* \"#utility.yul\":1160:1192   */\n      add\n        /* \"#utility.yul\":1157:1198   */\n      gt\n        /* \"#utility.yul\":1154:1282   */\n      iszero\n      tag_176\n      jumpi\n        /* \"#utility.yul\":1201:1280   */\n      tag_177\n      tag_119\n      jump\t// in\n    tag_177:\n        /* \"#utility.yul\":1154:1282   */\n    tag_176:\n        /* \"#utility.yul\":720:1288   */\n      swap3\n      pop\n      swap3\n      swap1\n      pop\n      jump\t// out\n        /* \"#utility.yul\":1308:1873   */\n    tag_121:\n        /* \"#utility.yul\":1378:1386   */\n      0x00\n        /* \"#utility.yul\":1388:1394   */\n      0x00\n        /* \"#utility.yul\":1438:1441   */\n      dup4\n        /* \"#utility.yul\":1431:1435   */\n      0x1f\n        /* \"#utility.yul\":1423:1429   */\n      dup5\n        /* \"#utility.yul\":1419:1436   */\n      add\n        /* \"#utility.yul\":1415:1442   */\n      slt\n        /* \"#utility.yul\":1405:1527   */\n      tag_179\n      jumpi\n        /* \"#utility.yul\":1446:1525   */\n      tag_180\n      tag_117\n      jump\t// in\n    tag_180:\n        /* \"#utility.yul\":1405:1527   */\n    tag_179:\n        /* \"#utility.yul\":1559:1565   */\n      dup3\n        /* \"#utility.yul\":1546:1566   */\n      calldataload\n        /* \"#utility.yul\":1536:1566   */\n      swap1\n      pop\n        /* \"#utility.yul\":1589:1607   */\n      0xffffffffffffffff\n        /* \"#utility.yul\":1581:1587   */\n      dup2\n        /* \"#utility.yul\":1578:1608   */\n      gt\n        /* \"#utility.yul\":1575:1692   */\n      iszero\n      tag_181\n      jumpi\n        /* \"#utility.yul\":1611:1690   */\n      tag_182\n      tag_118\n      jump\t// in\n    tag_182:\n        /* \"#utility.yul\":1575:1692   */\n    tag_181:\n        /* \"#utility.yul\":1725:1729   */\n      0x20\n        /* \"#utility.yul\":1717:1723   */\n      dup4\n        /* \"#utility.yul\":1713:1730   */\n      add\n        /* \"#utility.yul\":1701:1730   */\n      swap2\n      pop\n        /* \"#utility.yul\":1779:1782   */\n      dup4\n        /* \"#utility.yul\":1771:1775   */\n      0x20\n        /* \"#utility.yul\":1763:1769   */\n      dup3\n        /* \"#utility.yul\":1759:1776   */\n      mul\n        /* \"#utility.yul\":1749:1757   */\n      dup4\n        /* \"#utility.yul\":1745:1777   */\n      add\n        /* \"#utility.yul\":1742:1783   */\n      gt\n        /* \"#utility.yul\":1739:1867   */\n      iszero\n      tag_183\n      jumpi\n        /* \"#utility.yul\":1786:1865   */\n      tag_184\n      tag_119\n      jump\t// in\n    tag_184:\n        /* \"#utility.yul\":1739:1867   */\n    tag_183:\n        /* \"#utility.yul\":1308:1873   */\n      swap3\n      pop\n      swap3\n      swap1\n      pop\n      jump\t// out\n        /* \"#utility.yul\":1896:2464   */\n    tag_122:\n        /* \"#utility.yul\":1969:1977   */\n      0x00\n        /* \"#utility.yul\":1979:1985   */\n      0x00\n        /* \"#utility.yul\":2029:2032   */\n      dup4\n        /* \"#utility.yul\":2022:2026   */\n      0x1f\n        /* \"#utility.yul\":2014:2020   */\n      dup5\n        /* \"#utility.yul\":2010:2027   */\n      add\n        /* \"#utility.yul\":2006:2033   */\n      slt\n        /* \"#utility.yul\":1996:2118   */\n      tag_186\n      jumpi\n        /* \"#utility.yul\":2037:2116   */\n      tag_187\n      tag_117\n      jump\t// in\n    tag_187:\n        /* \"#utility.yul\":1996:2118   */\n    tag_186:\n        /* \"#utility.yul\":2150:2156   */\n      dup3\n        /* \"#utility.yul\":2137:2157   */\n      calldataload\n        /* \"#utility.yul\":2127:2157   */\n      swap1\n      pop\n        /* \"#utility.yul\":2180:2198   */\n      0xffffffffffffffff\n        /* \"#utility.yul\":2172:2178   */\n      dup2\n        /* \"#utility.yul\":2169:2199   */\n      gt\n        /* \"#utility.yul\":2166:2283   */\n      iszero\n      tag_188\n      jumpi\n        /* \"#utility.yul\":2202:2281   */\n      tag_189\n      tag_118\n      jump\t// in\n    tag_189:\n        /* \"#utility.yul\":2166:2283   */\n    tag_188:\n        /* \"#utility.yul\":2316:2320   */\n      0x20\n        /* \"#utility.yul\":2308:2314   */\n      dup4\n        /* \"#utility.yul\":2304:2321   */\n      add\n        /* \"#utility.yul\":2292:2321   */\n      swap2\n      pop\n        /* \"#utility.yul\":2370:2373   */\n      dup4\n        /* \"#utility.yul\":2362:2366   */\n      0x20\n        /* \"#utility.yul\":2354:2360   */\n      dup3\n        /* \"#utility.yul\":2350:2367   */\n      mul\n        /* \"#utility.yul\":2340:2348   */\n      dup4\n        /* \"#utility.yul\":2336:2368   */\n      add\n        /* \"#utility.yul\":2333:2374   */\n      gt\n        /* \"#utility.yul\":2330:2458   */\n      iszero\n      tag_190\n      jumpi\n        /* \"#utility.yul\":2377:2456   */\n      tag_191\n      tag_119\n      jump\t// in\n    tag_191:\n        /* \"#utility.yul\":2330:2458   */\n    tag_190:\n        /* \"#utility.yul\":1896:2464   */\n      swap3\n      pop\n      swap3\n      swap1\n      pop\n      jump\t// out\n        /* \"#utility.yul\":2470:3773   */\n    tag_8:\n        /* \"#utility.yul\":2625:2631   */\n      0x00\n        /* \"#utility.yul\":2633:2639   */\n      0x00\n        /* \"#utility.yul\":2641:2647   */\n      0x00\n        /* \"#utility.yul\":2649:2655   */\n      0x00\n        /* \"#utility.yul\":2657:2663   */\n      0x00\n        /* \"#utility.yul\":2665:2671   */\n      0x00\n        /* \"#utility.yul\":2714:2716   */\n      0x60\n        /* \"#utility.yul\":2702:2711   */\n      dup8\n        /* \"#utility.yul\":2693:2700   */\n      dup10\n        /* \"#utility.yul\":2689:2712   */\n      sub\n        /* \"#utility.yul\":2685:2717   */\n      slt\n        /* \"#utility.yul\":2682:2801   */\n      iszero\n      tag_193\n      jumpi\n        /* \"#utility.yul\":2720:2799   */\n      tag_194\n      tag_115\n      jump\t// in\n    tag_194:\n        /* \"#utility.yul\":2682:2801   */\n    tag_193:\n        /* \"#utility.yul\":2868:2869   */\n      0x00\n        /* \"#utility.yul\":2857:2866   */\n      dup8\n        /* \"#utility.yul\":2853:2870   */\n      add\n        /* \"#utility.yul\":2840:2871   */\n      calldataload\n        /* \"#utility.yul\":2898:2916   */\n      0xffffffffffffffff\n        /* \"#utility.yul\":2890:2896   */\n      dup2\n        /* \"#utility.yul\":2887:2917   */\n      gt\n        /* \"#utility.yul\":2884:3001   */\n      iszero\n      tag_195\n      jumpi\n        /* \"#utility.yul\":2920:2999   */\n      tag_196\n      tag_116\n      jump\t// in\n    tag_196:\n        /* \"#utility.yul\":2884:3001   */\n    tag_195:\n        /* \"#utility.yul\":3033:3113   */\n      tag_197\n        /* \"#utility.yul\":3105:3112   */\n      dup10\n        /* \"#utility.yul\":3096:3102   */\n      dup3\n        /* \"#utility.yul\":3085:3094   */\n      dup11\n        /* \"#utility.yul\":3081:3103   */\n      add\n        /* \"#utility.yul\":3033:3113   */\n      tag_120\n      jump\t// in\n    tag_197:\n        /* \"#utility.yul\":3015:3113   */\n      swap7\n      pop\n      swap7\n      pop\n        /* \"#utility.yul\":2811:3123   */\n      pop\n        /* \"#utility.yul\":3190:3192   */\n      0x20\n        /* \"#utility.yul\":3179:3188   */\n      dup8\n        /* \"#utility.yul\":3175:3193   */\n      add\n        /* \"#utility.yul\":3162:3194   */\n      calldataload\n        /* \"#utility.yul\":3221:3239   */\n      0xffffffffffffffff\n        /* \"#utility.yul\":3213:3219   */\n      dup2\n        /* \"#utility.yul\":3210:3240   */\n      gt\n        /* \"#utility.yul\":3207:3324   */\n      iszero\n      tag_198\n      jumpi\n        /* \"#utility.yul\":3243:3322   */\n      tag_199\n      tag_116\n      jump\t// in\n    tag_199:\n        /* \"#utility.yul\":3207:3324   */\n    tag_198:\n        /* \"#utility.yul\":3356:3433   */\n      tag_200\n        /* \"#utility.yul\":3425:3432   */\n      dup10\n        /* \"#utility.yul\":3416:3422   */\n      dup3\n        /* \"#utility.yul\":3405:3414   */\n      dup11\n        /* \"#utility.yul\":3401:3423   */\n      add\n        /* \"#utility.yul\":3356:3433   */\n      tag_121\n      jump\t// in\n    tag_200:\n        /* \"#utility.yul\":3338:3433   */\n      swap5\n      pop\n      swap5\n      pop\n        /* \"#utility.yul\":3133:3443   */\n      pop\n        /* \"#utility.yul\":3510:3512   */\n      0x40\n        /* \"#utility.yul\":3499:3508   */\n      dup8\n        /* \"#utility.yul\":3495:3513   */\n      add\n        /* \"#utility.yul\":3482:3514   */\n      calldataload\n        /* \"#utility.yul\":3541:3559   */\n      0xffffffffffffffff\n        /* \"#utility.yul\":3533:3539   */\n      dup2\n        /* \"#utility.yul\":3530:3560   */\n      gt\n        /* \"#utility.yul\":3527:3644   */\n      iszero\n      tag_201\n      jumpi\n        /* \"#utility.yul\":3563:3642   */\n      tag_202\n      tag_116\n      jump\t// in\n    tag_202:\n        /* \"#utility.yul\":3527:3644   */\n    tag_201:\n        /* \"#utility.yul\":3676:3756   */\n      tag_203\n        /* \"#utility.yul\":3748:3755   */\n      dup10\n        /* \"#utility.yul\":3739:3745   */\n      dup3\n        /* \"#utility.yul\":3728:3737   */\n      dup11\n        /* \"#utility.yul\":3724:3746   */\n      add\n        /* \"#utility.yul\":3676:3756   */\n      tag_122\n      jump\t// in\n    tag_203:\n        /* \"#utility.yul\":3658:3756   */\n      swap3\n      pop\n      swap3\n      pop\n        /* \"#utility.yul\":3453:3766   */\n      pop\n        /* \"#utility.yul\":2470:3773   */\n      swap3\n      swap6\n      pop\n      swap3\n      swap6\n      pop\n      swap3\n      swap6\n      jump\t// out\n        /* \"#utility.yul\":3779:3856   */\n    tag_123:\n        /* \"#utility.yul\":3816:3823   */\n      0x00\n        /* \"#utility.yul\":3845:3850   */\n      dup2\n        /* \"#utility.yul\":3834:3850   */\n      swap1\n      pop\n        /* \"#utility.yul\":3779:3856   */\n      swap2\n      swap1\n      pop\n      jump\t// out\n        /* \"#utility.yul\":3862:3984   */\n    tag_124:\n        /* \"#utility.yul\":3935:3959   */\n      tag_206\n        /* \"#utility.yul\":3953:3958   */\n      dup2\n        /* \"#utility.yul\":3935:3959   */\n      tag_123\n      jump\t// in\n    tag_206:\n        /* \"#utility.yul\":3928:3933   */\n      dup2\n        /* \"#utility.yul\":3925:3960   */\n      eq\n        /* \"#utility.yul\":3915:3978   */\n      tag_207\n      jumpi\n        /* \"#utility.yul\":3974:3975   */\n      0x00\n        /* \"#utility.yul\":3971:3972   */\n      0x00\n        /* \"#utility.yul\":3964:3976   */\n      revert\n        /* \"#utility.yul\":3915:3978   */\n    tag_207:\n        /* \"#utility.yul\":3862:3984   */\n      pop\n      jump\t// out\n        /* \"#utility.yul\":3990:4129   */\n    tag_125:\n        /* \"#utility.yul\":4036:4041   */\n      0x00\n        /* \"#utility.yul\":4074:4080   */\n      dup2\n        /* \"#utility.yul\":4061:4081   */\n      calldataload\n        /* \"#utility.yul\":4052:4081   */\n      swap1\n      pop\n        /* \"#utility.yul\":4090:4123   */\n      tag_209\n        /* \"#utility.yul\":4117:4122   */\n      dup2\n        /* \"#utility.yul\":4090:4123   */\n      tag_124\n      jump\t// in\n    tag_209:\n        /* \"#utility.yul\":3990:4129   */\n      swap3\n      swap2\n      pop\n      pop\n      jump\t// out\n        /* \"#utility.yul\":4135:4464   */\n    tag_12:\n        /* \"#utility.yul\":4194:4200   */\n      0x00\n        /* \"#utility.yul\":4243:4245   */\n      0x20\n        /* \"#utility.yul\":4231:4240   */\n      dup3\n        /* \"#utility.yul\":4222:4229   */\n      dup5\n        /* \"#utility.yul\":4218:4241   */\n      sub\n        /* \"#utility.yul\":4214:4246   */\n      slt\n        /* \"#utility.yul\":4211:4330   */\n      iszero\n      tag_211\n      jumpi\n        /* \"#utility.yul\":4249:4328   */\n      tag_212\n      tag_115\n      jump\t// in\n    tag_212:\n        /* \"#utility.yul\":4211:4330   */\n    tag_211:\n        /* \"#utility.yul\":4369:4370   */\n      0x00\n        /* \"#utility.yul\":4394:4447   */\n      tag_213\n        /* \"#utility.yul\":4439:4446   */\n      dup5\n        /* \"#utility.yul\":4430:4436   */\n      dup3\n        /* \"#utility.yul\":4419:4428   */\n      dup6\n        /* \"#utility.yul\":4415:4437   */\n      add\n        /* \"#utility.yul\":4394:4447   */\n      tag_125\n      jump\t// in\n    tag_213:\n        /* \"#utility.yul\":4384:4447   */\n      swap2\n      pop\n        /* \"#utility.yul\":4340:4457   */\n      pop\n        /* \"#utility.yul\":4135:4464   */\n      swap3\n      swap2\n      pop\n      pop\n      jump\t// out\n        /* \"#utility.yul\":4470:4639   */\n    tag_126:\n        /* \"#utility.yul\":4554:4565   */\n      0x00\n        /* \"#utility.yul\":4588:4594   */\n      dup3\n        /* \"#utility.yul\":4583:4586   */\n      dup3\n        /* \"#utility.yul\":4576:4595   */\n      mstore\n        /* \"#utility.yul\":4628:4632   */\n      0x20\n        /* \"#utility.yul\":4623:4626   */\n      dup3\n        /* \"#utility.yul\":4619:4633   */\n      add\n        /* \"#utility.yul\":4604:4633   */\n      swap1\n      pop\n        /* \"#utility.yul\":4470:4639   */\n      swap3\n      swap2\n      pop\n      pop\n      jump\t// out\n        /* \"#utility.yul\":4645:4810   */\n    tag_127:\n        /* \"#utility.yul\":4785:4802   */\n      0x6e6f742072657665616c2074696d650000000000000000000000000000000000\n        /* \"#utility.yul\":4781:4782   */\n      0x00\n        /* \"#utility.yul\":4773:4779   */\n      dup3\n        /* \"#utility.yul\":4769:4783   */\n      add\n        /* \"#utility.yul\":4762:4803   */\n      mstore\n        /* \"#utility.yul\":4645:4810   */\n      pop\n      jump\t// out\n        /* \"#utility.yul\":4816:5182   */\n    tag_128:\n        /* \"#utility.yul\":4958:4961   */\n      0x00\n        /* \"#utility.yul\":4979:5046   */\n      tag_217\n        /* \"#utility.yul\":5043:5045   */\n      0x0f\n        /* \"#utility.yul\":5038:5041   */\n      dup4\n        /* \"#utility.yul\":4979:5046   */\n      tag_126\n      jump\t// in\n    tag_217:\n        /* \"#utility.yul\":4972:5046   */\n      swap2\n      pop\n        /* \"#utility.yul\":5055:5148   */\n      tag_218\n        /* \"#utility.yul\":5144:5147   */\n      dup3\n        /* \"#utility.yul\":5055:5148   */\n      tag_127\n      jump\t// in\n    tag_218:\n        /* \"#utility.yul\":5173:5175   */\n      0x20\n        /* \"#utility.yul\":5168:5171   */\n      dup3\n        /* \"#utility.yul\":5164:5176   */\n      add\n        /* \"#utility.yul\":5157:5176   */\n      swap1\n      pop\n        /* \"#utility.yul\":4816:5182   */\n      swap2\n      swap1\n      pop\n      jump\t// out\n        /* \"#utility.yul\":5188:5607   */\n    tag_21:\n        /* \"#utility.yul\":5354:5358   */\n      0x00\n        /* \"#utility.yul\":5392:5394   */\n      0x20\n        /* \"#utility.yul\":5381:5390   */\n      dup3\n        /* \"#utility.yul\":5377:5395   */\n      add\n        /* \"#utility.yul\":5369:5395   */\n      swap1\n      pop\n        /* \"#utility.yul\":5441:5450   */\n      dup2\n        /* \"#utility.yul\":5435:5439   */\n      dup2\n        /* \"#utility.yul\":5431:5451   */\n      sub\n        /* \"#utility.yul\":5427:5428   */\n      0x00\n        /* \"#utility.yul\":5416:5425   */\n      dup4\n        /* \"#utility.yul\":5412:5429   */\n      add\n        /* \"#utility.yul\":5405:5452   */\n      mstore\n        /* \"#utility.yul\":5469:5600   */\n      tag_220\n        /* \"#utility.yul\":5595:5599   */\n      dup2\n        /* \"#utility.yul\":5469:5600   */\n      tag_128\n      jump\t// in\n    tag_220:\n        /* \"#utility.yul\":5461:5600   */\n      swap1\n      pop\n        /* \"#utility.yul\":5188:5607   */\n      swap2\n      swap1\n      pop\n      jump\t// out\n        /* \"#utility.yul\":5613:5785   */\n    tag_129:\n        /* \"#utility.yul\":5753:5777   */\n      0x56616c756573206c656e677468206d69736d6174636800000000000000000000\n        /* \"#utility.yul\":5749:5750   */\n      0x00\n        /* \"#utility.yul\":5741:5747   */\n      dup3\n        /* \"#utility.yul\":5737:5751   */\n      add\n        /* \"#utility.yul\":5730:5778   */\n      mstore\n        /* \"#utility.yul\":5613:5785   */\n      pop\n      jump\t// out\n        /* \"#utility.yul\":5791:6157   */\n    tag_130:\n        /* \"#utility.yul\":5933:5936   */\n      0x00\n        /* \"#utility.yul\":5954:6021   */\n      tag_223\n        /* \"#utility.yul\":6018:6020   */\n      0x16\n        /* \"#utility.yul\":6013:6016   */\n      dup4\n        /* \"#utility.yul\":5954:6021   */\n      tag_126\n      jump\t// in\n    tag_223:\n        /* \"#utility.yul\":5947:6021   */\n      swap2\n      pop\n        /* \"#utility.yul\":6030:6123   */\n      tag_224\n        /* \"#utility.yul\":6119:6122   */\n      dup3\n        /* \"#utility.yul\":6030:6123   */\n      tag_129\n      jump\t// in\n    tag_224:\n        /* \"#utility.yul\":6148:6150   */\n      0x20\n        /* \"#utility.yul\":6143:6146   */\n      dup3\n        /* \"#utility.yul\":6139:6151   */\n      add\n        /* \"#utility.yul\":6132:6151   */\n      swap1\n      pop\n        /* \"#utility.yul\":5791:6157   */\n      swap2\n      swap1\n      pop\n      jump\t// out\n        /* \"#utility.yul\":6163:6582   */\n    tag_24:\n        /* \"#utility.yul\":6329:6333   */\n      0x00\n        /* \"#utility.yul\":6367:6369   */\n      0x20\n        /* \"#utility.yul\":6356:6365   */\n      dup3\n        /* \"#utility.yul\":6352:6370   */\n      add\n        /* \"#utility.yul\":6344:6370   */\n      swap1\n      pop\n        /* \"#utility.yul\":6416:6425   */\n      dup2\n        /* \"#utility.yul\":6410:6414   */\n      dup2\n        /* \"#utility.yul\":6406:6426   */\n      sub\n        /* \"#utility.yul\":6402:6403   */\n      0x00\n        /* \"#utility.yul\":6391:6400   */\n      dup4\n        /* \"#utility.yul\":6387:6404   */\n      add\n        /* \"#utility.yul\":6380:6427   */\n      mstore\n        /* \"#utility.yul\":6444:6575   */\n      tag_226\n        /* \"#utility.yul\":6570:6574   */\n      dup2\n        /* \"#utility.yul\":6444:6575   */\n      tag_130\n      jump\t// in\n    tag_226:\n        /* \"#utility.yul\":6436:6575   */\n      swap1\n      pop\n        /* \"#utility.yul\":6163:6582   */\n      swap2\n      swap1\n      pop\n      jump\t// out\n        /* \"#utility.yul\":6588:6759   */\n    tag_131:\n        /* \"#utility.yul\":6728:6751   */\n      0x46616b6573206c656e677468206d69736d617463680000000000000000000000\n        /* \"#utility.yul\":6724:6725   */\n      0x00\n        /* \"#utility.yul\":6716:6722   */\n      dup3\n        /* \"#utility.yul\":6712:6726   */\n      add\n        /* \"#utility.yul\":6705:6752   */\n      mstore\n        /* \"#utility.yul\":6588:6759   */\n      pop\n      jump\t// out\n        /* \"#utility.yul\":6765:7131   */\n    tag_132:\n        /* \"#utility.yul\":6907:6910   */\n      0x00\n        /* \"#utility.yul\":6928:6995   */\n      tag_229\n        /* \"#utility.yul\":6992:6994   */\n      0x15\n        /* \"#utility.yul\":6987:6990   */\n      dup4\n        /* \"#utility.yul\":6928:6995   */\n      tag_126\n      jump\t// in\n    tag_229:\n        /* \"#utility.yul\":6921:6995   */\n      swap2\n      pop\n        /* \"#utility.yul\":7004:7097   */\n      tag_230\n        /* \"#utility.yul\":7093:7096   */\n      dup3\n        /* \"#utility.yul\":7004:7097   */\n      tag_131\n      jump\t// in\n    tag_230:\n        /* \"#utility.yul\":7122:7124   */\n      0x20\n        /* \"#utility.yul\":7117:7120   */\n      dup3\n        /* \"#utility.yul\":7113:7125   */\n      add\n        /* \"#utility.yul\":7106:7125   */\n      swap1\n      pop\n        /* \"#utility.yul\":6765:7131   */\n      swap2\n      swap1\n      pop\n      jump\t// out\n        /* \"#utility.yul\":7137:7556   */\n    tag_27:\n        /* \"#utility.yul\":7303:7307   */\n      0x00\n        /* \"#utility.yul\":7341:7343   */\n      0x20\n        /* \"#utility.yul\":7330:7339   */\n      dup3\n        /* \"#utility.yul\":7326:7344   */\n      add\n        /* \"#utility.yul\":7318:7344   */\n      swap1\n      pop\n        /* \"#utility.yul\":7390:7399   */\n      dup2\n        /* \"#utility.yul\":7384:7388   */\n      dup2\n        /* \"#utility.yul\":7380:7400   */\n      sub\n        /* \"#utility.yul\":7376:7377   */\n      0x00\n        /* \"#utility.yul\":7365:7374   */\n      dup4\n        /* \"#utility.yul\":7361:7378   */\n      add\n        /* \"#utility.yul\":7354:7401   */\n      mstore\n        /* \"#utility.yul\":7418:7549   */\n      tag_232\n        /* \"#utility.yul\":7544:7548   */\n      dup2\n        /* \"#utility.yul\":7418:7549   */\n      tag_132\n      jump\t// in\n    tag_232:\n        /* \"#utility.yul\":7410:7549   */\n      swap1\n      pop\n        /* \"#utility.yul\":7137:7556   */\n      swap2\n      swap1\n      pop\n      jump\t// out\n        /* \"#utility.yul\":7562:7735   */\n    tag_133:\n        /* \"#utility.yul\":7702:7727   */\n      0x53656372657473206c656e677468206d69736d61746368000000000000000000\n        /* \"#utility.yul\":7698:7699   */\n      0x00\n        /* \"#utility.yul\":7690:7696   */\n      dup3\n        /* \"#utility.yul\":7686:7700   */\n      add\n        /* \"#utility.yul\":7679:7728   */\n      mstore\n        /* \"#utility.yul\":7562:7735   */\n      pop\n      jump\t// out\n        /* \"#utility.yul\":7741:8107   */\n    tag_134:\n        /* \"#utility.yul\":7883:7886   */\n      0x00\n        /* \"#utility.yul\":7904:7971   */\n      tag_235\n        /* \"#utility.yul\":7968:7970   */\n      0x17\n        /* \"#utility.yul\":7963:7966   */\n      dup4\n        /* \"#utility.yul\":7904:7971   */\n      tag_126\n      jump\t// in\n    tag_235:\n        /* \"#utility.yul\":7897:7971   */\n      swap2\n      pop\n        /* \"#utility.yul\":7980:8073   */\n      tag_236\n        /* \"#utility.yul\":8069:8072   */\n      dup3\n        /* \"#utility.yul\":7980:8073   */\n      tag_133\n      jump\t// in\n    tag_236:\n        /* \"#utility.yul\":8098:8100   */\n      0x20\n        /* \"#utility.yul\":8093:8096   */\n      dup3\n        /* \"#utility.yul\":8089:8101   */\n      add\n        /* \"#utility.yul\":8082:8101   */\n      swap1\n      pop\n        /* \"#utility.yul\":7741:8107   */\n      swap2\n      swap1\n      pop\n      jump\t// out\n        /* \"#utility.yul\":8113:8532   */\n    tag_30:\n        /* \"#utility.yul\":8279:8283   */\n      0x00\n        /* \"#utility.yul\":8317:8319   */\n      0x20\n        /* \"#utility.yul\":8306:8315   */\n      dup3\n        /* \"#utility.yul\":8302:8320   */\n      add\n        /* \"#utility.yul\":8294:8320   */\n      swap1\n      pop\n        /* \"#utility.yul\":8366:8375   */\n      dup2\n        /* \"#utility.yul\":8360:8364   */\n      dup2\n        /* \"#utility.yul\":8356:8376   */\n      sub\n        /* \"#utility.yul\":8352:8353   */\n      0x00\n        /* \"#utility.yul\":8341:8350   */\n      dup4\n        /* \"#utility.yul\":8337:8354   */\n      add\n        /* \"#utility.yul\":8330:8377   */\n      mstore\n        /* \"#utility.yul\":8394:8525   */\n      tag_238\n        /* \"#utility.yul\":8520:8524   */\n      dup2\n        /* \"#utility.yul\":8394:8525   */\n      tag_134\n      jump\t// in\n    tag_238:\n        /* \"#utility.yul\":8386:8525   */\n      swap1\n      pop\n        /* \"#utility.yul\":8113:8532   */\n      swap2\n      swap1\n      pop\n      jump\t// out\n        /* \"#utility.yul\":8538:8718   */\n    tag_36:\n        /* \"#utility.yul\":8586:8663   */\n      0x4e487b7100000000000000000000000000000000000000000000000000000000\n        /* \"#utility.yul\":8583:8584   */\n      0x00\n        /* \"#utility.yul\":8576:8664   */\n      mstore\n        /* \"#utility.yul\":8683:8687   */\n      0x32\n        /* \"#utility.yul\":8680:8681   */\n      0x04\n        /* \"#utility.yul\":8673:8688   */\n      mstore\n        /* \"#utility.yul\":8707:8711   */\n      0x24\n        /* \"#utility.yul\":8704:8705   */\n      0x00\n        /* \"#utility.yul\":8697:8712   */\n      revert\n        /* \"#utility.yul\":8724:8814   */\n    tag_135:\n        /* \"#utility.yul\":8758:8765   */\n      0x00\n        /* \"#utility.yul\":8801:8806   */\n      dup2\n        /* \"#utility.yul\":8794:8807   */\n      iszero\n        /* \"#utility.yul\":8787:8808   */\n      iszero\n        /* \"#utility.yul\":8776:8808   */\n      swap1\n      pop\n        /* \"#utility.yul\":8724:8814   */\n      swap2\n      swap1\n      pop\n      jump\t// out\n        /* \"#utility.yul\":8820:8936   */\n    tag_136:\n        /* \"#utility.yul\":8890:8911   */\n      tag_242\n        /* \"#utility.yul\":8905:8910   */\n      dup2\n        /* \"#utility.yul\":8890:8911   */\n      tag_135\n      jump\t// in\n    tag_242:\n        /* \"#utility.yul\":8883:8888   */\n      dup2\n        /* \"#utility.yul\":8880:8912   */\n      eq\n        /* \"#utility.yul\":8870:8930   */\n      tag_243\n      jumpi\n        /* \"#utility.yul\":8926:8927   */\n      0x00\n        /* \"#utility.yul\":8923:8924   */\n      0x00\n        /* \"#utility.yul\":8916:8928   */\n      revert\n        /* \"#utility.yul\":8870:8930   */\n    tag_243:\n        /* \"#utility.yul\":8820:8936   */\n      pop\n      jump\t// out\n        /* \"#utility.yul\":8942:9075   */\n    tag_137:\n        /* \"#utility.yul\":8985:8990   */\n      0x00\n        /* \"#utility.yul\":9023:9029   */\n      dup2\n        /* \"#utility.yul\":9010:9030   */\n      calldataload\n        /* \"#utility.yul\":9001:9030   */\n      swap1\n      pop\n        /* \"#utility.yul\":9039:9069   */\n      tag_245\n        /* \"#utility.yul\":9063:9068   */\n      dup2\n        /* \"#utility.yul\":9039:9069   */\n      tag_136\n      jump\t// in\n    tag_245:\n        /* \"#utility.yul\":8942:9075   */\n      swap3\n      swap2\n      pop\n      pop\n      jump\t// out\n        /* \"#utility.yul\":9081:9404   */\n    tag_43:\n        /* \"#utility.yul\":9137:9143   */\n      0x00\n        /* \"#utility.yul\":9186:9188   */\n      0x20\n        /* \"#utility.yul\":9174:9183   */\n      dup3\n        /* \"#utility.yul\":9165:9172   */\n      dup5\n        /* \"#utility.yul\":9161:9184   */\n      sub\n        /* \"#utility.yul\":9157:9189   */\n      slt\n        /* \"#utility.yul\":9154:9273   */\n      iszero\n      tag_247\n      jumpi\n        /* \"#utility.yul\":9192:9271   */\n      tag_248\n      tag_115\n      jump\t// in\n    tag_248:\n        /* \"#utility.yul\":9154:9273   */\n    tag_247:\n        /* \"#utility.yul\":9312:9313   */\n      0x00\n        /* \"#utility.yul\":9337:9387   */\n      tag_249\n        /* \"#utility.yul\":9379:9386   */\n      dup5\n        /* \"#utility.yul\":9370:9376   */\n      dup3\n        /* \"#utility.yul\":9359:9368   */\n      dup6\n        /* \"#utility.yul\":9355:9377   */\n      add\n        /* \"#utility.yul\":9337:9387   */\n      tag_137\n      jump\t// in\n    tag_249:\n        /* \"#utility.yul\":9327:9387   */\n      swap2\n      pop\n        /* \"#utility.yul\":9283:9397   */\n      pop\n        /* \"#utility.yul\":9081:9404   */\n      swap3\n      swap2\n      pop\n      pop\n      jump\t// out\n        /* \"#utility.yul\":9410:9487   */\n    tag_138:\n        /* \"#utility.yul\":9447:9454   */\n      0x00\n        /* \"#utility.yul\":9476:9481   */\n      dup2\n        /* \"#utility.yul\":9465:9481   */\n      swap1\n      pop\n        /* \"#utility.yul\":9410:9487   */\n      swap2\n      swap1\n      pop\n      jump\t// out\n        /* \"#utility.yul\":9493:9572   */\n    tag_139:\n        /* \"#utility.yul\":9532:9539   */\n      0x00\n        /* \"#utility.yul\":9561:9566   */\n      dup2\n        /* \"#utility.yul\":9550:9566   */\n      swap1\n      pop\n        /* \"#utility.yul\":9493:9572   */\n      swap2\n      swap1\n      pop\n      jump\t// out\n        /* \"#utility.yul\":9578:9735   */\n    tag_140:\n        /* \"#utility.yul\":9683:9728   */\n      tag_253\n        /* \"#utility.yul\":9703:9727   */\n      tag_254\n        /* \"#utility.yul\":9721:9726   */\n      dup3\n        /* \"#utility.yul\":9703:9727   */\n      tag_138\n      jump\t// in\n    tag_254:\n        /* \"#utility.yul\":9683:9728   */\n      tag_139\n      jump\t// in\n    tag_253:\n        /* \"#utility.yul\":9678:9681   */\n      dup3\n        /* \"#utility.yul\":9671:9729   */\n      mstore\n        /* \"#utility.yul\":9578:9735   */\n      pop\n      pop\n      jump\t// out\n        /* \"#utility.yul\":9741:9837   */\n    tag_141:\n        /* \"#utility.yul\":9775:9783   */\n      0x00\n        /* \"#utility.yul\":9824:9829   */\n      dup2\n        /* \"#utility.yul\":9819:9822   */\n      0xf8\n        /* \"#utility.yul\":9815:9830   */\n      shl\n        /* \"#utility.yul\":9794:9830   */\n      swap1\n      pop\n        /* \"#utility.yul\":9741:9837   */\n      swap2\n      swap1\n      pop\n      jump\t// out\n        /* \"#utility.yul\":9843:9936   */\n    tag_142:\n        /* \"#utility.yul\":9880:9887   */\n      0x00\n        /* \"#utility.yul\":9909:9930   */\n      tag_257\n        /* \"#utility.yul\":9924:9929   */\n      dup3\n        /* \"#utility.yul\":9909:9930   */\n      tag_141\n      jump\t// in\n    tag_257:\n        /* \"#utility.yul\":9898:9930   */\n      swap1\n      pop\n        /* \"#utility.yul\":9843:9936   */\n      swap2\n      swap1\n      pop\n      jump\t// out\n        /* \"#utility.yul\":9942:10037   */\n    tag_143:\n        /* \"#utility.yul\":9978:9985   */\n      0x00\n        /* \"#utility.yul\":10007:10031   */\n      tag_259\n        /* \"#utility.yul\":10025:10030   */\n      dup3\n        /* \"#utility.yul\":10007:10031   */\n      tag_142\n      jump\t// in\n    tag_259:\n        /* \"#utility.yul\":9996:10031   */\n      swap1\n      pop\n        /* \"#utility.yul\":9942:10037   */\n      swap2\n      swap1\n      pop\n      jump\t// out\n        /* \"#utility.yul\":10043:10188   */\n    tag_144:\n        /* \"#utility.yul\":10142:10181   */\n      tag_261\n        /* \"#utility.yul\":10159:10180   */\n      tag_262\n        /* \"#utility.yul\":10174:10179   */\n      dup3\n        /* \"#utility.yul\":10159:10180   */\n      tag_135\n      jump\t// in\n    tag_262:\n        /* \"#utility.yul\":10142:10181   */\n      tag_143\n      jump\t// in\n    tag_261:\n        /* \"#utility.yul\":10137:10140   */\n      dup3\n        /* \"#utility.yul\":10130:10182   */\n      mstore\n        /* \"#utility.yul\":10043:10188   */\n      pop\n      pop\n      jump\t// out\n        /* \"#utility.yul\":10194:10273   */\n    tag_145:\n        /* \"#utility.yul\":10233:10240   */\n      0x00\n        /* \"#utility.yul\":10262:10267   */\n      dup2\n        /* \"#utility.yul\":10251:10267   */\n      swap1\n      pop\n        /* \"#utility.yul\":10194:10273   */\n      swap2\n      swap1\n      pop\n      jump\t// out\n        /* \"#utility.yul\":10279:10436   */\n    tag_146:\n        /* \"#utility.yul\":10384:10429   */\n      tag_265\n        /* \"#utility.yul\":10404:10428   */\n      tag_266\n        /* \"#utility.yul\":10422:10427   */\n      dup3\n        /* \"#utility.yul\":10404:10428   */\n      tag_123\n      jump\t// in\n    tag_266:\n        /* \"#utility.yul\":10384:10429   */\n      tag_145\n      jump\t// in\n    tag_265:\n        /* \"#utility.yul\":10379:10382   */\n      dup3\n        /* \"#utility.yul\":10372:10430   */\n      mstore\n        /* \"#utility.yul\":10279:10436   */\n      pop\n      pop\n      jump\t// out\n        /* \"#utility.yul\":10442:10967   */\n    tag_47:\n        /* \"#utility.yul\":10604:10607   */\n      0x00\n        /* \"#utility.yul\":10619:10694   */\n      tag_268\n        /* \"#utility.yul\":10690:10693   */\n      dup3\n        /* \"#utility.yul\":10681:10687   */\n      dup7\n        /* \"#utility.yul\":10619:10694   */\n      tag_140\n      jump\t// in\n    tag_268:\n        /* \"#utility.yul\":10719:10721   */\n      0x20\n        /* \"#utility.yul\":10714:10717   */\n      dup3\n        /* \"#utility.yul\":10710:10722   */\n      add\n        /* \"#utility.yul\":10703:10722   */\n      swap2\n      pop\n        /* \"#utility.yul\":10732:10801   */\n      tag_269\n        /* \"#utility.yul\":10797:10800   */\n      dup3\n        /* \"#utility.yul\":10788:10794   */\n      dup6\n        /* \"#utility.yul\":10732:10801   */\n      tag_144\n      jump\t// in\n    tag_269:\n        /* \"#utility.yul\":10826:10827   */\n      0x01\n        /* \"#utility.yul\":10821:10824   */\n      dup3\n        /* \"#utility.yul\":10817:10828   */\n      add\n        /* \"#utility.yul\":10810:10828   */\n      swap2\n      pop\n        /* \"#utility.yul\":10838:10913   */\n      tag_270\n        /* \"#utility.yul\":10909:10912   */\n      dup3\n        /* \"#utility.yul\":10900:10906   */\n      dup5\n        /* \"#utility.yul\":10838:10913   */\n      tag_146\n      jump\t// in\n    tag_270:\n        /* \"#utility.yul\":10938:10940   */\n      0x20\n        /* \"#utility.yul\":10933:10936   */\n      dup3\n        /* \"#utility.yul\":10929:10941   */\n      add\n        /* \"#utility.yul\":10922:10941   */\n      swap2\n      pop\n        /* \"#utility.yul\":10958:10961   */\n      dup2\n        /* \"#utility.yul\":10951:10961   */\n      swap1\n      pop\n        /* \"#utility.yul\":10442:10967   */\n      swap5\n      swap4\n      pop\n      pop\n      pop\n      pop\n      jump\t// out\n        /* \"#utility.yul\":10973:11153   */\n    tag_147:\n        /* \"#utility.yul\":11021:11098   */\n      0x4e487b7100000000000000000000000000000000000000000000000000000000\n        /* \"#utility.yul\":11018:11019   */\n      0x00\n        /* \"#utility.yul\":11011:11099   */\n      mstore\n        /* \"#utility.yul\":11118:11122   */\n      0x11\n        /* \"#utility.yul\":11115:11116   */\n      0x04\n        /* \"#utility.yul\":11108:11123   */\n      mstore\n        /* \"#utility.yul\":11142:11146   */\n      0x24\n        /* \"#utility.yul\":11139:11140   */\n      0x00\n        /* \"#utility.yul\":11132:11147   */\n      revert\n        /* \"#utility.yul\":11159:11353   */\n    tag_64:\n        /* \"#utility.yul\":11199:11203   */\n      0x00\n        /* \"#utility.yul\":11219:11239   */\n      tag_273\n        /* \"#utility.yul\":11237:11238   */\n      dup3\n        /* \"#utility.yul\":11219:11239   */\n      tag_138\n      jump\t// in\n    tag_273:\n        /* \"#utility.yul\":11214:11239   */\n      swap2\n      pop\n        /* \"#utility.yul\":11253:11273   */\n      tag_274\n        /* \"#utility.yul\":11271:11272   */\n      dup4\n        /* \"#utility.yul\":11253:11273   */\n      tag_138\n      jump\t// in\n    tag_274:\n        /* \"#utility.yul\":11248:11273   */\n      swap3\n      pop\n        /* \"#utility.yul\":11297:11298   */\n      dup3\n        /* \"#utility.yul\":11294:11295   */\n      dup3\n        /* \"#utility.yul\":11290:11299   */\n      sub\n        /* \"#utility.yul\":11282:11299   */\n      swap1\n      pop\n        /* \"#utility.yul\":11321:11322   */\n      dup2\n        /* \"#utility.yul\":11315:11319   */\n      dup2\n        /* \"#utility.yul\":11312:11323   */\n      gt\n        /* \"#utility.yul\":11309:11346   */\n      iszero\n      tag_275\n      jumpi\n        /* \"#utility.yul\":11326:11344   */\n      tag_276\n      tag_147\n      jump\t// in\n    tag_276:\n        /* \"#utility.yul\":11309:11346   */\n    tag_275:\n        /* \"#utility.yul\":11159:11353   */\n      swap3\n      swap2\n      pop\n      pop\n      jump\t// out\n        /* \"#utility.yul\":11359:11550   */\n    tag_66:\n        /* \"#utility.yul\":11399:11402   */\n      0x00\n        /* \"#utility.yul\":11418:11438   */\n      tag_278\n        /* \"#utility.yul\":11436:11437   */\n      dup3\n        /* \"#utility.yul\":11418:11438   */\n      tag_138\n      jump\t// in\n    tag_278:\n        /* \"#utility.yul\":11413:11438   */\n      swap2\n      pop\n        /* \"#utility.yul\":11452:11472   */\n      tag_279\n        /* \"#utility.yul\":11470:11471   */\n      dup4\n        /* \"#utility.yul\":11452:11472   */\n      tag_138\n      jump\t// in\n    tag_279:\n        /* \"#utility.yul\":11447:11472   */\n      swap3\n      pop\n        /* \"#utility.yul\":11495:11496   */\n      dup3\n        /* \"#utility.yul\":11492:11493   */\n      dup3\n        /* \"#utility.yul\":11488:11497   */\n      add\n        /* \"#utility.yul\":11481:11497   */\n      swap1\n      pop\n        /* \"#utility.yul\":11516:11519   */\n      dup1\n        /* \"#utility.yul\":11513:11514   */\n      dup3\n        /* \"#utility.yul\":11510:11520   */\n      gt\n        /* \"#utility.yul\":11507:11543   */\n      iszero\n      tag_280\n      jumpi\n        /* \"#utility.yul\":11523:11541   */\n      tag_281\n      tag_147\n      jump\t// in\n    tag_281:\n        /* \"#utility.yul\":11507:11543   */\n    tag_280:\n        /* \"#utility.yul\":11359:11550   */\n      swap3\n      swap2\n      pop\n      pop\n      jump\t// out\n        /* \"#utility.yul\":11556:11703   */\n    tag_148:\n        /* \"#utility.yul\":11657:11668   */\n      0x00\n        /* \"#utility.yul\":11694:11697   */\n      dup2\n        /* \"#utility.yul\":11679:11697   */\n      swap1\n      pop\n        /* \"#utility.yul\":11556:11703   */\n      swap3\n      swap2\n      pop\n      pop\n      jump\t// out\n        /* \"#utility.yul\":11709:11823   */\n    tag_149:\n      pop\n      jump\t// out\n        /* \"#utility.yul\":11829:12227   */\n    tag_150:\n        /* \"#utility.yul\":11988:11991   */\n      0x00\n        /* \"#utility.yul\":12009:12092   */\n      tag_285\n        /* \"#utility.yul\":12090:12091   */\n      0x00\n        /* \"#utility.yul\":12085:12088   */\n      dup4\n        /* \"#utility.yul\":12009:12092   */\n      tag_148\n      jump\t// in\n    tag_285:\n        /* \"#utility.yul\":12002:12092   */\n      swap2\n      pop\n        /* \"#utility.yul\":12101:12194   */\n      tag_286\n        /* \"#utility.yul\":12190:12193   */\n      dup3\n        /* \"#utility.yul\":12101:12194   */\n      tag_149\n      jump\t// in\n    tag_286:\n        /* \"#utility.yul\":12219:12220   */\n      0x00\n        /* \"#utility.yul\":12214:12217   */\n      dup3\n        /* \"#utility.yul\":12210:12221   */\n      add\n        /* \"#utility.yul\":12203:12221   */\n      swap1\n      pop\n        /* \"#utility.yul\":11829:12227   */\n      swap2\n      swap1\n      pop\n      jump\t// out\n        /* \"#utility.yul\":12233:12612   */\n    tag_75:\n        /* \"#utility.yul\":12417:12420   */\n      0x00\n        /* \"#utility.yul\":12439:12586   */\n      tag_288\n        /* \"#utility.yul\":12582:12585   */\n      dup3\n        /* \"#utility.yul\":12439:12586   */\n      tag_150\n      jump\t// in\n    tag_288:\n        /* \"#utility.yul\":12432:12586   */\n      swap2\n      pop\n        /* \"#utility.yul\":12603:12606   */\n      dup2\n        /* \"#utility.yul\":12596:12606   */\n      swap1\n      pop\n        /* \"#utility.yul\":12233:12612   */\n      swap2\n      swap1\n      pop\n      jump\t// out\n        /* \"#utility.yul\":12618:12793   */\n    tag_151:\n        /* \"#utility.yul\":12758:12785   */\n      0x7472616e73616374696f6e206e6f742073756363657366756c00000000000000\n        /* \"#utility.yul\":12754:12755   */\n      0x00\n        /* \"#utility.yul\":12746:12752   */\n      dup3\n        /* \"#utility.yul\":12742:12756   */\n      add\n        /* \"#utility.yul\":12735:12786   */\n      mstore\n        /* \"#utility.yul\":12618:12793   */\n      pop\n      jump\t// out\n        /* \"#utility.yul\":12799:13165   */\n    tag_152:\n        /* \"#utility.yul\":12941:12944   */\n      0x00\n        /* \"#utility.yul\":12962:13029   */\n      tag_291\n        /* \"#utility.yul\":13026:13028   */\n      0x19\n        /* \"#utility.yul\":13021:13024   */\n      dup4\n        /* \"#utility.yul\":12962:13029   */\n      tag_126\n      jump\t// in\n    tag_291:\n        /* \"#utility.yul\":12955:13029   */\n      swap2\n      pop\n        /* \"#utility.yul\":13038:13131   */\n      tag_292\n        /* \"#utility.yul\":13127:13130   */\n      dup3\n        /* \"#utility.yul\":13038:13131   */\n      tag_151\n      jump\t// in\n    tag_292:\n        /* \"#utility.yul\":13156:13158   */\n      0x20\n        /* \"#utility.yul\":13151:13154   */\n      dup3\n        /* \"#utility.yul\":13147:13159   */\n      add\n        /* \"#utility.yul\":13140:13159   */\n      swap1\n      pop\n        /* \"#utility.yul\":12799:13165   */\n      swap2\n      swap1\n      pop\n      jump\t// out\n        /* \"#utility.yul\":13171:13590   */\n    tag_81:\n        /* \"#utility.yul\":13337:13341   */\n      0x00\n        /* \"#utility.yul\":13375:13377   */\n      0x20\n        /* \"#utility.yul\":13364:13373   */\n      dup3\n        /* \"#utility.yul\":13360:13378   */\n      add\n        /* \"#utility.yul\":13352:13378   */\n      swap1\n      pop\n        /* \"#utility.yul\":13424:13433   */\n      dup2\n        /* \"#utility.yul\":13418:13422   */\n      dup2\n        /* \"#utility.yul\":13414:13434   */\n      sub\n        /* \"#utility.yul\":13410:13411   */\n      0x00\n        /* \"#utility.yul\":13399:13408   */\n      dup4\n        /* \"#utility.yul\":13395:13412   */\n      add\n        /* \"#utility.yul\":13388:13435   */\n      mstore\n        /* \"#utility.yul\":13452:13583   */\n      tag_294\n        /* \"#utility.yul\":13578:13582   */\n      dup2\n        /* \"#utility.yul\":13452:13583   */\n      tag_152\n      jump\t// in\n    tag_294:\n        /* \"#utility.yul\":13444:13583   */\n      swap1\n      pop\n        /* \"#utility.yul\":13171:13590   */\n      swap2\n      swap1\n      pop\n      jump\t// out\n        /* \"#utility.yul\":13596:13755   */\n    tag_153:\n        /* \"#utility.yul\":13736:13747   */\n      0x62696420656e6465640000000000000000000000000000000000000000000000\n        /* \"#utility.yul\":13732:13733   */\n      0x00\n        /* \"#utility.yul\":13724:13730   */\n      dup3\n        /* \"#utility.yul\":13720:13734   */\n      add\n        /* \"#utility.yul\":13713:13748   */\n      mstore\n        /* \"#utility.yul\":13596:13755   */\n      pop\n      jump\t// out\n        /* \"#utility.yul\":13761:14126   */\n    tag_154:\n        /* \"#utility.yul\":13903:13906   */\n      0x00\n        /* \"#utility.yul\":13924:13990   */\n      tag_297\n        /* \"#utility.yul\":13988:13989   */\n      0x09\n        /* \"#utility.yul\":13983:13986   */\n      dup4\n        /* \"#utility.yul\":13924:13990   */\n      tag_126\n      jump\t// in\n    tag_297:\n        /* \"#utility.yul\":13917:13990   */\n      swap2\n      pop\n        /* \"#utility.yul\":13999:14092   */\n      tag_298\n        /* \"#utility.yul\":14088:14091   */\n      dup3\n        /* \"#utility.yul\":13999:14092   */\n      tag_153\n      jump\t// in\n    tag_298:\n        /* \"#utility.yul\":14117:14119   */\n      0x20\n        /* \"#utility.yul\":14112:14115   */\n      dup3\n        /* \"#utility.yul\":14108:14120   */\n      add\n        /* \"#utility.yul\":14101:14120   */\n      swap1\n      pop\n        /* \"#utility.yul\":13761:14126   */\n      swap2\n      swap1\n      pop\n      jump\t// out\n        /* \"#utility.yul\":14132:14551   */\n    tag_85:\n        /* \"#utility.yul\":14298:14302   */\n      0x00\n        /* \"#utility.yul\":14336:14338   */\n      0x20\n        /* \"#utility.yul\":14325:14334   */\n      dup3\n        /* \"#utility.yul\":14321:14339   */\n      add\n        /* \"#utility.yul\":14313:14339   */\n      swap1\n      pop\n        /* \"#utility.yul\":14385:14394   */\n      dup2\n        /* \"#utility.yul\":14379:14383   */\n      dup2\n        /* \"#utility.yul\":14375:14395   */\n      sub\n        /* \"#utility.yul\":14371:14372   */\n      0x00\n        /* \"#utility.yul\":14360:14369   */\n      dup4\n        /* \"#utility.yul\":14356:14373   */\n      add\n        /* \"#utility.yul\":14349:14396   */\n      mstore\n        /* \"#utility.yul\":14413:14544   */\n      tag_300\n        /* \"#utility.yul\":14539:14543   */\n      dup2\n        /* \"#utility.yul\":14413:14544   */\n      tag_154\n      jump\t// in\n    tag_300:\n        /* \"#utility.yul\":14405:14544   */\n      swap1\n      pop\n        /* \"#utility.yul\":14132:14551   */\n      swap2\n      swap1\n      pop\n      jump\t// out\n        /* \"#utility.yul\":14557:14728   */\n    tag_155:\n        /* \"#utility.yul\":14697:14720   */\n      0x41756374696f6e20616c726561647920656e6465640000000000000000000000\n        /* \"#utility.yul\":14693:14694   */\n      0x00\n        /* \"#utility.yul\":14685:14691   */\n      dup3\n        /* \"#utility.yul\":14681:14695   */\n      add\n        /* \"#utility.yul\":14674:14721   */\n      mstore\n        /* \"#utility.yul\":14557:14728   */\n      pop\n      jump\t// out\n        /* \"#utility.yul\":14734:15100   */\n    tag_156:\n        /* \"#utility.yul\":14876:14879   */\n      0x00\n        /* \"#utility.yul\":14897:14964   */\n      tag_303\n        /* \"#utility.yul\":14961:14963   */\n      0x15\n        /* \"#utility.yul\":14956:14959   */\n      dup4\n        /* \"#utility.yul\":14897:14964   */\n      tag_126\n      jump\t// in\n    tag_303:\n        /* \"#utility.yul\":14890:14964   */\n      swap2\n      pop\n        /* \"#utility.yul\":14973:15066   */\n      tag_304\n        /* \"#utility.yul\":15062:15065   */\n      dup3\n        /* \"#utility.yul\":14973:15066   */\n      tag_155\n      jump\t// in\n    tag_304:\n        /* \"#utility.yul\":15091:15093   */\n      0x20\n        /* \"#utility.yul\":15086:15089   */\n      dup3\n        /* \"#utility.yul\":15082:15094   */\n      add\n        /* \"#utility.yul\":15075:15094   */\n      swap1\n      pop\n        /* \"#utility.yul\":14734:15100   */\n      swap2\n      swap1\n      pop\n      jump\t// out\n        /* \"#utility.yul\":15106:15525   */\n    tag_90:\n        /* \"#utility.yul\":15272:15276   */\n      0x00\n        /* \"#utility.yul\":15310:15312   */\n      0x20\n        /* \"#utility.yul\":15299:15308   */\n      dup3\n        /* \"#utility.yul\":15295:15313   */\n      add\n        /* \"#utility.yul\":15287:15313   */\n      swap1\n      pop\n        /* \"#utility.yul\":15359:15368   */\n      dup2\n        /* \"#utility.yul\":15353:15357   */\n      dup2\n        /* \"#utility.yul\":15349:15369   */\n      sub\n        /* \"#utility.yul\":15345:15346   */\n      0x00\n        /* \"#utility.yul\":15334:15343   */\n      dup4\n        /* \"#utility.yul\":15330:15347   */\n      add\n        /* \"#utility.yul\":15323:15370   */\n      mstore\n        /* \"#utility.yul\":15387:15518   */\n      tag_306\n        /* \"#utility.yul\":15513:15517   */\n      dup2\n        /* \"#utility.yul\":15387:15518   */\n      tag_156\n      jump\t// in\n    tag_306:\n        /* \"#utility.yul\":15379:15518   */\n      swap1\n      pop\n        /* \"#utility.yul\":15106:15525   */\n      swap2\n      swap1\n      pop\n      jump\t// out\n        /* \"#utility.yul\":15531:15702   */\n    tag_157:\n        /* \"#utility.yul\":15671:15694   */\n      0x41756374696f6e206e6f7420656e646564207965740000000000000000000000\n        /* \"#utility.yul\":15667:15668   */\n      0x00\n        /* \"#utility.yul\":15659:15665   */\n      dup3\n        /* \"#utility.yul\":15655:15669   */\n      add\n        /* \"#utility.yul\":15648:15695   */\n      mstore\n        /* \"#utility.yul\":15531:15702   */\n      pop\n      jump\t// out\n        /* \"#utility.yul\":15708:16074   */\n    tag_158:\n        /* \"#utility.yul\":15850:15853   */\n      0x00\n        /* \"#utility.yul\":15871:15938   */\n      tag_309\n        /* \"#utility.yul\":15935:15937   */\n      0x15\n        /* \"#utility.yul\":15930:15933   */\n      dup4\n        /* \"#utility.yul\":15871:15938   */\n      tag_126\n      jump\t// in\n    tag_309:\n        /* \"#utility.yul\":15864:15938   */\n      swap2\n      pop\n        /* \"#utility.yul\":15947:16040   */\n      tag_310\n        /* \"#utility.yul\":16036:16039   */\n      dup3\n        /* \"#utility.yul\":15947:16040   */\n      tag_157\n      jump\t// in\n    tag_310:\n        /* \"#utility.yul\":16065:16067   */\n      0x20\n        /* \"#utility.yul\":16060:16063   */\n      dup3\n        /* \"#utility.yul\":16056:16068   */\n      add\n        /* \"#utility.yul\":16049:16068   */\n      swap1\n      pop\n        /* \"#utility.yul\":15708:16074   */\n      swap2\n      swap1\n      pop\n      jump\t// out\n        /* \"#utility.yul\":16080:16499   */\n    tag_93:\n        /* \"#utility.yul\":16246:16250   */\n      0x00\n        /* \"#utility.yul\":16284:16286   */\n      0x20\n        /* \"#utility.yul\":16273:16282   */\n      dup3\n        /* \"#utility.yul\":16269:16287   */\n      add\n        /* \"#utility.yul\":16261:16287   */\n      swap1\n      pop\n        /* \"#utility.yul\":16333:16342   */\n      dup2\n        /* \"#utility.yul\":16327:16331   */\n      dup2\n        /* \"#utility.yul\":16323:16343   */\n      sub\n        /* \"#utility.yul\":16319:16320   */\n      0x00\n        /* \"#utility.yul\":16308:16317   */\n      dup4\n        /* \"#utility.yul\":16304:16321   */\n      add\n        /* \"#utility.yul\":16297:16344   */\n      mstore\n        /* \"#utility.yul\":16361:16492   */\n      tag_312\n        /* \"#utility.yul\":16487:16491   */\n      dup2\n        /* \"#utility.yul\":16361:16492   */\n      tag_158\n      jump\t// in\n    tag_312:\n        /* \"#utility.yul\":16353:16492   */\n      swap1\n      pop\n        /* \"#utility.yul\":16080:16499   */\n      swap2\n      swap1\n      pop\n      jump\t// out\n        /* \"#utility.yul\":16505:16676   */\n    tag_159:\n        /* \"#utility.yul\":16645:16668   */\n      0x7472616e7366657220756e7375636365737366756c0000000000000000000000\n        /* \"#utility.yul\":16641:16642   */\n      0x00\n        /* \"#utility.yul\":16633:16639   */\n      dup3\n        /* \"#utility.yul\":16629:16643   */\n      add\n        /* \"#utility.yul\":16622:16669   */\n      mstore\n        /* \"#utility.yul\":16505:16676   */\n      pop\n      jump\t// out\n        /* \"#utility.yul\":16682:17048   */\n    tag_160:\n        /* \"#utility.yul\":16824:16827   */\n      0x00\n        /* \"#utility.yul\":16845:16912   */\n      tag_315\n        /* \"#utility.yul\":16909:16911   */\n      0x15\n        /* \"#utility.yul\":16904:16907   */\n      dup4\n        /* \"#utility.yul\":16845:16912   */\n      tag_126\n      jump\t// in\n    tag_315:\n        /* \"#utility.yul\":16838:16912   */\n      swap2\n      pop\n        /* \"#utility.yul\":16921:17014   */\n      tag_316\n        /* \"#utility.yul\":17010:17013   */\n      dup3\n        /* \"#utility.yul\":16921:17014   */\n      tag_159\n      jump\t// in\n    tag_316:\n        /* \"#utility.yul\":17039:17041   */\n      0x20\n        /* \"#utility.yul\":17034:17037   */\n      dup3\n        /* \"#utility.yul\":17030:17042   */\n      add\n        /* \"#utility.yul\":17023:17042   */\n      swap1\n      pop\n        /* \"#utility.yul\":16682:17048   */\n      swap2\n      swap1\n      pop\n      jump\t// out\n        /* \"#utility.yul\":17054:17473   */\n    tag_100:\n        /* \"#utility.yul\":17220:17224   */\n      0x00\n        /* \"#utility.yul\":17258:17260   */\n      0x20\n        /* \"#utility.yul\":17247:17256   */\n      dup3\n        /* \"#utility.yul\":17243:17261   */\n      add\n        /* \"#utility.yul\":17235:17261   */\n      swap1\n      pop\n        /* \"#utility.yul\":17307:17316   */\n      dup2\n        /* \"#utility.yul\":17301:17305   */\n      dup2\n        /* \"#utility.yul\":17297:17317   */\n      sub\n        /* \"#utility.yul\":17293:17294   */\n      0x00\n        /* \"#utility.yul\":17282:17291   */\n      dup4\n        /* \"#utility.yul\":17278:17295   */\n      add\n        /* \"#utility.yul\":17271:17318   */\n      mstore\n        /* \"#utility.yul\":17335:17466   */\n      tag_318\n        /* \"#utility.yul\":17461:17465   */\n      dup2\n        /* \"#utility.yul\":17335:17466   */\n      tag_160\n      jump\t// in\n    tag_318:\n        /* \"#utility.yul\":17327:17466   */\n      swap1\n      pop\n        /* \"#utility.yul\":17054:17473   */\n      swap2\n      swap1\n      pop\n      jump\t// out\n        /* \"#utility.yul\":17479:17597   */\n    tag_161:\n        /* \"#utility.yul\":17566:17590   */\n      tag_320\n        /* \"#utility.yul\":17584:17589   */\n      dup2\n        /* \"#utility.yul\":17566:17590   */\n      tag_138\n      jump\t// in\n    tag_320:\n        /* \"#utility.yul\":17561:17564   */\n      dup3\n        /* \"#utility.yul\":17554:17591   */\n      mstore\n        /* \"#utility.yul\":17479:17597   */\n      pop\n      pop\n      jump\t// out\n        /* \"#utility.yul\":17603:17825   */\n    tag_102:\n        /* \"#utility.yul\":17696:17700   */\n      0x00\n        /* \"#utility.yul\":17734:17736   */\n      0x20\n        /* \"#utility.yul\":17723:17732   */\n      dup3\n        /* \"#utility.yul\":17719:17737   */\n      add\n        /* \"#utility.yul\":17711:17737   */\n      swap1\n      pop\n        /* \"#utility.yul\":17747:17818   */\n      tag_322\n        /* \"#utility.yul\":17815:17816   */\n      0x00\n        /* \"#utility.yul\":17804:17813   */\n      dup4\n        /* \"#utility.yul\":17800:17817   */\n      add\n        /* \"#utility.yul\":17791:17797   */\n      dup5\n        /* \"#utility.yul\":17747:17818   */\n      tag_161\n      jump\t// in\n    tag_322:\n        /* \"#utility.yul\":17603:17825   */\n      swap3\n      swap2\n      pop\n      pop\n      jump\t// out\n        /* \"#utility.yul\":17831:17994   */\n    tag_162:\n        /* \"#utility.yul\":17971:17986   */\n      0x526566756e64206661696c656400000000000000000000000000000000000000\n        /* \"#utility.yul\":17967:17968   */\n      0x00\n        /* \"#utility.yul\":17959:17965   */\n      dup3\n        /* \"#utility.yul\":17955:17969   */\n      add\n        /* \"#utility.yul\":17948:17987   */\n      mstore\n        /* \"#utility.yul\":17831:17994   */\n      pop\n      jump\t// out\n        /* \"#utility.yul\":18000:18366   */\n    tag_163:\n        /* \"#utility.yul\":18142:18145   */\n      0x00\n        /* \"#utility.yul\":18163:18230   */\n      tag_325\n        /* \"#utility.yul\":18227:18229   */\n      0x0d\n        /* \"#utility.yul\":18222:18225   */\n      dup4\n        /* \"#utility.yul\":18163:18230   */\n      tag_126\n      jump\t// in\n    tag_325:\n        /* \"#utility.yul\":18156:18230   */\n      swap2\n      pop\n        /* \"#utility.yul\":18239:18332   */\n      tag_326\n        /* \"#utility.yul\":18328:18331   */\n      dup3\n        /* \"#utility.yul\":18239:18332   */\n      tag_162\n      jump\t// in\n    tag_326:\n        /* \"#utility.yul\":18357:18359   */\n      0x20\n        /* \"#utility.yul\":18352:18355   */\n      dup3\n        /* \"#utility.yul\":18348:18360   */\n      add\n        /* \"#utility.yul\":18341:18360   */\n      swap1\n      pop\n        /* \"#utility.yul\":18000:18366   */\n      swap2\n      swap1\n      pop\n      jump\t// out\n        /* \"#utility.yul\":18372:18791   */\n    tag_112:\n        /* \"#utility.yul\":18538:18542   */\n      0x00\n        /* \"#utility.yul\":18576:18578   */\n      0x20\n        /* \"#utility.yul\":18565:18574   */\n      dup3\n        /* \"#utility.yul\":18561:18579   */\n      add\n        /* \"#utility.yul\":18553:18579   */\n      swap1\n      pop\n        /* \"#utility.yul\":18625:18634   */\n      dup2\n        /* \"#utility.yul\":18619:18623   */\n      dup2\n        /* \"#utility.yul\":18615:18635   */\n      sub\n        /* \"#utility.yul\":18611:18612   */\n      0x00\n        /* \"#utility.yul\":18600:18609   */\n      dup4\n        /* \"#utility.yul\":18596:18613   */\n      add\n        /* \"#utility.yul\":18589:18636   */\n      mstore\n        /* \"#utility.yul\":18653:18784   */\n      tag_328\n        /* \"#utility.yul\":18779:18783   */\n      dup2\n        /* \"#utility.yul\":18653:18784   */\n      tag_163\n      jump\t// in\n    tag_328:\n        /* \"#utility.yul\":18645:18784   */\n      swap1\n      pop\n        /* \"#utility.yul\":18372:18791   */\n      swap2\n      swap1\n      pop\n      jump\t// out\n\n    auxdata: 0xa2646970667358221220cb97af4e8168288438ad5c9f041e190d60d9a54d4ef224dad2e3ca099ef95f1764736f6c634300081b0033\n}\n",
				"bytecode": {
					"linkReferences": {},
					"object": "608060405234801561000f575f5ffd5b5060405161141b38038061141b8339818101604052810190610031919061012f565b825f5f6101000a81548173ffffffffffffffffffffffffffffffffffffffff021916908373ffffffffffffffffffffffffffffffffffffffff160217905550814261007c91906101ac565b6001819055508060015461009091906101ac565b6002819055505050506101df565b5f5ffd5b5f73ffffffffffffffffffffffffffffffffffffffff82169050919050565b5f6100cb826100a2565b9050919050565b6100db816100c1565b81146100e5575f5ffd5b50565b5f815190506100f6816100d2565b92915050565b5f819050919050565b61010e816100fc565b8114610118575f5ffd5b50565b5f8151905061012981610105565b92915050565b5f5f5f606084860312156101465761014561009e565b5b5f610153868287016100e8565b93505060206101648682870161011b565b92505060406101758682870161011b565b9150509250925092565b7f4e487b71000000000000000000000000000000000000000000000000000000005f52601160045260245ffd5b5f6101b6826100fc565b91506101c1836100fc565b92508282019050808211156101d9576101d861017f565b5b92915050565b61122f806101ec5f395ff3fe608060405260043610610033575f3560e01c8063900f080a14610037578063957bb1e01461005f578063fe67a54b1461007b575b5f5ffd5b348015610042575f5ffd5b5061005d60048036038101906100589190610a78565b610091565b005b61007960048036038101906100749190610b5b565b61051b565b005b348015610086575f5ffd5b5061008f6105ee565b005b600154421180156100a3575060025442105b6100e2576040517f08c379a00000000000000000000000000000000000000000000000000000000081526004016100d990610be0565b60405180910390fd5b5f60045f3373ffffffffffffffffffffffffffffffffffffffff1673ffffffffffffffffffffffffffffffffffffffff1681526020019081526020015f2080549050905080878790501461016b576040517f08c379a000000000000000000000000000000000000000000000000000000000815260040161016290610c48565b60405180910390fd5b8085859050146101b0576040517f08c379a00000000000000000000000000000000000000000000000000000000081526004016101a790610cb0565b60405180910390fd5b8083839050146101f5576040517f08c379a00000000000000000000000000000000000000000000000000000000081526004016101ec90610d18565b60405180910390fd5b5f5f5f90505b88889050811015610467575f60045f3373ffffffffffffffffffffffffffffffffffffffff1673ffffffffffffffffffffffffffffffffffffffff1681526020019081526020015f20828154811061025657610255610d36565b5b905f5260205f2090600202016040518060400160405290815f8201548152602001600182015481525050905089898381811061029557610294610d36565b5b905060200201358888848181106102af576102ae610d36565b5b90506020020160208101906102c49190610d98565b8787858181106102d7576102d6610d36565b5b905060200201356040516020016102f093929190610e51565b60405160208183030381529060405280519060200120815f0151036103f55787878381811061032257610321610d36565b5b90506020020160208101906103379190610d98565b158015610361575089898381811061035257610351610d36565b5b90506020020135816020015110155b156103e157610389338b8b8581811061037d5761037c610d36565b5b905060200201356107df565b156103c9578989838181106103a1576103a0610d36565b5b9050602002013581602001516103b79190610eba565b836103c29190610eed565b92506103dc565b8060200151836103d99190610eed565b92505b6103f4565b8060200151836103f19190610eed565b92505b5b5f5f1b60045f3373ffffffffffffffffffffffffffffffffffffffff1673ffffffffffffffffffffffffffffffffffffffff1681526020019081526020015f20838154811061044757610446610d36565b5b905f5260205f2090600202015f01819055505080806001019150506101fb565b505f3373ffffffffffffffffffffffffffffffffffffffff168260405161048d90610f4d565b5f6040518083038185875af1925050503d805f81146104c7576040519150601f19603f3d011682016040523d82523d5f602084013e6104cc565b606091505b5050905080610510576040517f08c379a000000000000000000000000000000000000000000000000000000000815260040161050790610fab565b60405180910390fd5b505050505050505050565b600154421061055f576040517f08c379a000000000000000000000000000000000000000000000000000000000815260040161055690611013565b60405180910390fd5b60045f3373ffffffffffffffffffffffffffffffffffffffff1673ffffffffffffffffffffffffffffffffffffffff1681526020019081526020015f20604051806040016040528083815260200134815250908060018154018082558091505060019003905f5260205f2090600202015f909190919091505f820151815f015560208201518160010155505050565b5f151560035f9054906101000a900460ff16151514610642576040517f08c379a00000000000000000000000000000000000000000000000000000000081526004016106399061107b565b60405180910390fd5b600254421015610687576040517f08c379a000000000000000000000000000000000000000000000000000000000815260040161067e906110e3565b60405180910390fd5b5f5f5f9054906101000a900473ffffffffffffffffffffffffffffffffffffffff1673ffffffffffffffffffffffffffffffffffffffff166005546040516106ce90610f4d565b5f6040518083038185875af1925050503d805f8114610708576040519150601f19603f3d011682016040523d82523d5f602084013e61070d565b606091505b5050905080610751576040517f08c379a00000000000000000000000000000000000000000000000000000000081526004016107489061114b565b60405180910390fd5b600160035f6101000a81548160ff02191690831515021790555060065f9054906101000a900473ffffffffffffffffffffffffffffffffffffffff1673ffffffffffffffffffffffffffffffffffffffff167f6e0e2174dbf7b77c08b6f9a2799b9feda84a6d54a5644864582040100a47d4c56005546040516107d49190611178565b60405180910390a250565b5f60055482111561095b575f73ffffffffffffffffffffffffffffffffffffffff1660065f9054906101000a900473ffffffffffffffffffffffffffffffffffffffff1673ffffffffffffffffffffffffffffffffffffffff161461090b575f60065f9054906101000a900473ffffffffffffffffffffffffffffffffffffffff1673ffffffffffffffffffffffffffffffffffffffff1660055460405161088690610f4d565b5f6040518083038185875af1925050503d805f81146108c0576040519150601f19603f3d011682016040523d82523d5f602084013e6108c5565b606091505b5050905080610909576040517f08c379a0000000000000000000000000000000000000000000000000000000008152600401610900906111db565b60405180910390fd5b505b816005819055508260065f6101000a81548173ffffffffffffffffffffffffffffffffffffffff021916908373ffffffffffffffffffffffffffffffffffffffff1602179055506001905061095f565b5f90505b92915050565b5f5ffd5b5f5ffd5b5f5ffd5b5f5ffd5b5f5ffd5b5f5f83601f84011261098e5761098d61096d565b5b8235905067ffffffffffffffff8111156109ab576109aa610971565b5b6020830191508360208202830111156109c7576109c6610975565b5b9250929050565b5f5f83601f8401126109e3576109e261096d565b5b8235905067ffffffffffffffff811115610a00576109ff610971565b5b602083019150836020820283011115610a1c57610a1b610975565b5b9250929050565b5f5f83601f840112610a3857610a3761096d565b5b8235905067ffffffffffffffff811115610a5557610a54610971565b5b602083019150836020820283011115610a7157610a70610975565b5b9250929050565b5f5f5f5f5f5f60608789031215610a9257610a91610965565b5b5f87013567ffffffffffffffff811115610aaf57610aae610969565b5b610abb89828a01610979565b9650965050602087013567ffffffffffffffff811115610ade57610add610969565b5b610aea89828a016109ce565b9450945050604087013567ffffffffffffffff811115610b0d57610b0c610969565b5b610b1989828a01610a23565b92509250509295509295509295565b5f819050919050565b610b3a81610b28565b8114610b44575f5ffd5b50565b5f81359050610b5581610b31565b92915050565b5f60208284031215610b7057610b6f610965565b5b5f610b7d84828501610b47565b91505092915050565b5f82825260208201905092915050565b7f6e6f742072657665616c2074696d6500000000000000000000000000000000005f82015250565b5f610bca600f83610b86565b9150610bd582610b96565b602082019050919050565b5f6020820190508181035f830152610bf781610bbe565b9050919050565b7f56616c756573206c656e677468206d69736d61746368000000000000000000005f82015250565b5f610c32601683610b86565b9150610c3d82610bfe565b602082019050919050565b5f6020820190508181035f830152610c5f81610c26565b9050919050565b7f46616b6573206c656e677468206d69736d6174636800000000000000000000005f82015250565b5f610c9a601583610b86565b9150610ca582610c66565b602082019050919050565b5f6020820190508181035f830152610cc781610c8e565b9050919050565b7f53656372657473206c656e677468206d69736d617463680000000000000000005f82015250565b5f610d02601783610b86565b9150610d0d82610cce565b602082019050919050565b5f6020820190508181035f830152610d2f81610cf6565b9050919050565b7f4e487b71000000000000000000000000000000000000000000000000000000005f52603260045260245ffd5b5f8115159050919050565b610d7781610d63565b8114610d81575f5ffd5b50565b5f81359050610d9281610d6e565b92915050565b5f60208284031215610dad57610dac610965565b5b5f610dba84828501610d84565b91505092915050565b5f819050919050565b5f819050919050565b610de6610de182610dc3565b610dcc565b82525050565b5f8160f81b9050919050565b5f610e0282610dec565b9050919050565b5f610e1382610df8565b9050919050565b610e2b610e2682610d63565b610e09565b82525050565b5f819050919050565b610e4b610e4682610b28565b610e31565b82525050565b5f610e5c8286610dd5565b602082019150610e6c8285610e1a565b600182019150610e7c8284610e3a565b602082019150819050949350505050565b7f4e487b71000000000000000000000000000000000000000000000000000000005f52601160045260245ffd5b5f610ec482610dc3565b9150610ecf83610dc3565b9250828203905081811115610ee757610ee6610e8d565b5b92915050565b5f610ef782610dc3565b9150610f0283610dc3565b9250828201905080821115610f1a57610f19610e8d565b5b92915050565b5f81905092915050565b50565b5f610f385f83610f20565b9150610f4382610f2a565b5f82019050919050565b5f610f5782610f2d565b9150819050919050565b7f7472616e73616374696f6e206e6f742073756363657366756c000000000000005f82015250565b5f610f95601983610b86565b9150610fa082610f61565b602082019050919050565b5f6020820190508181035f830152610fc281610f89565b9050919050565b7f62696420656e64656400000000000000000000000000000000000000000000005f82015250565b5f610ffd600983610b86565b915061100882610fc9565b602082019050919050565b5f6020820190508181035f83015261102a81610ff1565b9050919050565b7f41756374696f6e20616c726561647920656e64656400000000000000000000005f82015250565b5f611065601583610b86565b915061107082611031565b602082019050919050565b5f6020820190508181035f83015261109281611059565b9050919050565b7f41756374696f6e206e6f7420656e6465642079657400000000000000000000005f82015250565b5f6110cd601583610b86565b91506110d882611099565b602082019050919050565b5f6020820190508181035f8301526110fa816110c1565b9050919050565b7f7472616e7366657220756e7375636365737366756c00000000000000000000005f82015250565b5f611135601583610b86565b915061114082611101565b602082019050919050565b5f6020820190508181035f83015261116281611129565b9050919050565b61117281610dc3565b82525050565b5f60208201905061118b5f830184611169565b92915050565b7f526566756e64206661696c6564000000000000000000000000000000000000005f82015250565b5f6111c5600d83610b86565b91506111d082611191565b602082019050919050565b5f6020820190508181035f8301526111f2816111b9565b905091905056fea2646970667358221220cb97af4e8168288438ad5c9f041e190d60d9a54d4ef224dad2e3ca099ef95f1764736f6c634300081b0033",
					"opcodes": "PUSH1 0x80 PUSH1 0x40 MSTORE CALLVALUE DUP1 ISZERO PUSH2 0xF JUMPI PUSH0 PUSH0 REVERT JUMPDEST POP PUSH1 0x40 MLOAD PUSH2 0x141B CODESIZE SUB DUP1 PUSH2 0x141B DUP4 CODECOPY DUP2 DUP2 ADD PUSH1 0x40 MSTORE DUP2 ADD SWAP1 PUSH2 0x31 SWAP2 SWAP1 PUSH2 0x12F JUMP JUMPDEST DUP3 PUSH0 PUSH0 PUSH2 0x100 EXP DUP2 SLOAD DUP2 PUSH20 0xFFFFFFFFFFFFFFFFFFFFFFFFFFFFFFFFFFFFFFFF MUL NOT AND SWAP1 DUP4 PUSH20 0xFFFFFFFFFFFFFFFFFFFFFFFFFFFFFFFFFFFFFFFF AND MUL OR SWAP1 SSTORE POP DUP2 TIMESTAMP PUSH2 0x7C SWAP2 SWAP1 PUSH2 0x1AC JUMP JUMPDEST PUSH1 0x1 DUP2 SWAP1 SSTORE POP DUP1 PUSH1 0x1 SLOAD PUSH2 0x90 SWAP2 SWAP1 PUSH2 0x1AC JUMP JUMPDEST PUSH1 0x2 DUP2 SWAP1 SSTORE POP POP POP POP PUSH2 0x1DF JUMP JUMPDEST PUSH0 PUSH0 REVERT JUMPDEST PUSH0 PUSH20 0xFFFFFFFFFFFFFFFFFFFFFFFFFFFFFFFFFFFFFFFF DUP3 AND SWAP1 POP SWAP2 SWAP1 POP JUMP JUMPDEST PUSH0 PUSH2 0xCB DUP3 PUSH2 0xA2 JUMP JUMPDEST SWAP1 POP SWAP2 SWAP1 POP JUMP JUMPDEST PUSH2 0xDB DUP2 PUSH2 0xC1 JUMP JUMPDEST DUP2 EQ PUSH2 0xE5 JUMPI PUSH0 PUSH0 REVERT JUMPDEST POP JUMP JUMPDEST PUSH0 DUP2 MLOAD SWAP1 POP PUSH2 0xF6 DUP2 PUSH2 0xD2 JUMP JUMPDEST SWAP3 SWAP2 POP POP JUMP JUMPDEST PUSH0 DUP2 SWAP1 POP SWAP2 SWAP1 POP JUMP JUMPDEST PUSH2 0x10E DUP2 PUSH2 0xFC JUMP JUMPDEST DUP2 EQ PUSH2 0x118 JUMPI PUSH0 PUSH0 REVERT JUMPDEST POP JUMP JUMPDEST PUSH0 DUP2 MLOAD SWAP1 POP PUSH2 0x129 DUP2 PUSH2 0x105 JUMP JUMPDEST SWAP3 SWAP2 POP POP JUMP JUMPDEST PUSH0 PUSH0 PUSH0 PUSH1 0x60 DUP5 DUP7 SUB SLT ISZERO PUSH2 0x146 JUMPI PUSH2 0x145 PUSH2 0x9E JUMP JUMPDEST JUMPDEST PUSH0 PUSH2 0x153 DUP7 DUP3 DUP8 ADD PUSH2 0xE8 JUMP JUMPDEST SWAP4 POP POP PUSH1 0x20 PUSH2 0x164 DUP7 DUP3 DUP8 ADD PUSH2 0x11B JUMP JUMPDEST SWAP3 POP POP PUSH1 0x40 PUSH2 0x175 DUP7 DUP3 DUP8 ADD PUSH2 0x11B JUMP JUMPDEST SWAP2 POP POP SWAP3 POP SWAP3 POP SWAP3 JUMP JUMPDEST PUSH32 0x4E487B7100000000000000000000000000000000000000000000000000000000 PUSH0 MSTORE PUSH1 0x11 PUSH1 0x4 MSTORE PUSH1 0x24 PUSH0 REVERT JUMPDEST PUSH0 PUSH2 0x1B6 DUP3 PUSH2 0xFC JUMP JUMPDEST SWAP2 POP PUSH2 0x1C1 DUP4 PUSH2 0xFC JUMP JUMPDEST SWAP3 POP DUP3 DUP3 ADD SWAP1 POP DUP1 DUP3 GT ISZERO PUSH2 0x1D9 JUMPI PUSH2 0x1D8 PUSH2 0x17F JUMP JUMPDEST JUMPDEST SWAP3 SWAP2 POP POP JUMP JUMPDEST PUSH2 0x122F DUP1 PUSH2 0x1EC PUSH0 CODECOPY PUSH0 RETURN INVALID PUSH1 0x80 PUSH1 0x40 MSTORE PUSH1 0x4 CALLDATASIZE LT PUSH2 0x33 JUMPI PUSH0 CALLDATALOAD PUSH1 0xE0 SHR DUP1 PUSH4 0x900F080A EQ PUSH2 0x37 JUMPI DUP1 PUSH4 0x957BB1E0 EQ PUSH2 0x5F JUMPI DUP1 PUSH4 0xFE67A54B EQ PUSH2 0x7B JUMPI JUMPDEST PUSH0 PUSH0 REVERT JUMPDEST CALLVALUE DUP1 ISZERO PUSH2 0x42 JUMPI PUSH0 PUSH0 REVERT JUMPDEST POP PUSH2 0x5D PUSH1 0x4 DUP1 CALLDATASIZE SUB DUP2 ADD SWAP1 PUSH2 0x58 SWAP2 SWAP1 PUSH2 0xA78 JUMP JUMPDEST PUSH2 0x91 JUMP JUMPDEST STOP JUMPDEST PUSH2 0x79 PUSH1 0x4 DUP1 CALLDATASIZE SUB DUP2 ADD SWAP1 PUSH2 0x74 SWAP2 SWAP1 PUSH2 0xB5B JUMP JUMPDEST PUSH2 0x51B JUMP JUMPDEST STOP JUMPDEST CALLVALUE DUP1 ISZERO PUSH2 0x86 JUMPI PUSH0 PUSH0 REVERT JUMPDEST POP PUSH2 0x8F PUSH2 0x5EE JUMP JUMPDEST STOP JUMPDEST PUSH1 0x1 SLOAD TIMESTAMP GT DUP1 ISZERO PUSH2 0xA3 JUMPI POP PUSH1 0x2 SLOAD TIMESTAMP LT JUMPDEST PUSH2 0xE2 JUMPI PUSH1 0x40 MLOAD PUSH32 0x8C379A000000000000000000000000000000000000000000000000000000000 DUP2 MSTORE PUSH1 0x4 ADD PUSH2 0xD9 SWAP1 PUSH2 0xBE0 JUMP JUMPDEST PUSH1 0x40 MLOAD DUP1 SWAP2 SUB SWAP1 REVERT JUMPDEST PUSH0 PUSH1 0x4 PUSH0 CALLER PUSH20 0xFFFFFFFFFFFFFFFFFFFFFFFFFFFFFFFFFFFFFFFF AND PUSH20 0xFFFFFFFFFFFFFFFFFFFFFFFFFFFFFFFFFFFFFFFF AND DUP2 MSTORE PUSH1 0x20 ADD SWAP1 DUP2 MSTORE PUSH1 0x20 ADD PUSH0 KECCAK256 DUP1 SLOAD SWAP1 POP SWAP1 POP DUP1 DUP8 DUP8 SWAP1 POP EQ PUSH2 0x16B JUMPI PUSH1 0x40 MLOAD PUSH32 0x8C379A000000000000000000000000000000000000000000000000000000000 DUP2 MSTORE PUSH1 0x4 ADD PUSH2 0x162 SWAP1 PUSH2 0xC48 JUMP JUMPDEST PUSH1 0x40 MLOAD DUP1 SWAP2 SUB SWAP1 REVERT JUMPDEST DUP1 DUP6 DUP6 SWAP1 POP EQ PUSH2 0x1B0 JUMPI PUSH1 0x40 MLOAD PUSH32 0x8C379A000000000000000000000000000000000000000000000000000000000 DUP2 MSTORE PUSH1 0x4 ADD PUSH2 0x1A7 SWAP1 PUSH2 0xCB0 JUMP JUMPDEST PUSH1 0x40 MLOAD DUP1 SWAP2 SUB SWAP1 REVERT JUMPDEST DUP1 DUP4 DUP4 SWAP1 POP EQ PUSH2 0x1F5 JUMPI PUSH1 0x40 MLOAD PUSH32 0x8C379A000000000000000000000000000000000000000000000000000000000 DUP2 MSTORE PUSH1 0x4 ADD PUSH2 0x1EC SWAP1 PUSH2 0xD18 JUMP JUMPDEST PUSH1 0x40 MLOAD DUP1 SWAP2 SUB SWAP1 REVERT JUMPDEST PUSH0 PUSH0 PUSH0 SWAP1 POP JUMPDEST DUP9 DUP9 SWAP1 POP DUP2 LT ISZERO PUSH2 0x467 JUMPI PUSH0 PUSH1 0x4 PUSH0 CALLER PUSH20 0xFFFFFFFFFFFFFFFFFFFFFFFFFFFFFFFFFFFFFFFF AND PUSH20 0xFFFFFFFFFFFFFFFFFFFFFFFFFFFFFFFFFFFFFFFF AND DUP2 MSTORE PUSH1 0x20 ADD SWAP1 DUP2 MSTORE PUSH1 0x20 ADD PUSH0 KECCAK256 DUP3 DUP2 SLOAD DUP2 LT PUSH2 0x256 JUMPI PUSH2 0x255 PUSH2 0xD36 JUMP JUMPDEST JUMPDEST SWAP1 PUSH0 MSTORE PUSH1 0x20 PUSH0 KECCAK256 SWAP1 PUSH1 0x2 MUL ADD PUSH1 0x40 MLOAD DUP1 PUSH1 0x40 ADD PUSH1 0x40 MSTORE SWAP1 DUP2 PUSH0 DUP3 ADD SLOAD DUP2 MSTORE PUSH1 0x20 ADD PUSH1 0x1 DUP3 ADD SLOAD DUP2 MSTORE POP POP SWAP1 POP DUP10 DUP10 DUP4 DUP2 DUP2 LT PUSH2 0x295 JUMPI PUSH2 0x294 PUSH2 0xD36 JUMP JUMPDEST JUMPDEST SWAP1 POP PUSH1 0x20 MUL ADD CALLDATALOAD DUP9 DUP9 DUP5 DUP2 DUP2 LT PUSH2 0x2AF JUMPI PUSH2 0x2AE PUSH2 0xD36 JUMP JUMPDEST JUMPDEST SWAP1 POP PUSH1 0x20 MUL ADD PUSH1 0x20 DUP2 ADD SWAP1 PUSH2 0x2C4 SWAP2 SWAP1 PUSH2 0xD98 JUMP JUMPDEST DUP8 DUP8 DUP6 DUP2 DUP2 LT PUSH2 0x2D7 JUMPI PUSH2 0x2D6 PUSH2 0xD36 JUMP JUMPDEST JUMPDEST SWAP1 POP PUSH1 0x20 MUL ADD CALLDATALOAD PUSH1 0x40 MLOAD PUSH1 0x20 ADD PUSH2 0x2F0 SWAP4 SWAP3 SWAP2 SWAP1 PUSH2 0xE51 JUMP JUMPDEST PUSH1 0x40 MLOAD PUSH1 0x20 DUP2 DUP4 SUB SUB DUP2 MSTORE SWAP1 PUSH1 0x40 MSTORE DUP1 MLOAD SWAP1 PUSH1 0x20 ADD KECCAK256 DUP2 PUSH0 ADD MLOAD SUB PUSH2 0x3F5 JUMPI DUP8 DUP8 DUP4 DUP2 DUP2 LT PUSH2 0x322 JUMPI PUSH2 0x321 PUSH2 0xD36 JUMP JUMPDEST JUMPDEST SWAP1 POP PUSH1 0x20 MUL ADD PUSH1 0x20 DUP2 ADD SWAP1 PUSH2 0x337 SWAP2 SWAP1 PUSH2 0xD98 JUMP JUMPDEST ISZERO DUP1 ISZERO PUSH2 0x361 JUMPI POP DUP10 DUP10 DUP4 DUP2 DUP2 LT PUSH2 0x352 JUMPI PUSH2 0x351 PUSH2 0xD36 JUMP JUMPDEST JUMPDEST SWAP1 POP PUSH1 0x20 MUL ADD CALLDATALOAD DUP2 PUSH1 0x20 ADD MLOAD LT ISZERO JUMPDEST ISZERO PUSH2 0x3E1 JUMPI PUSH2 0x389 CALLER DUP12 DUP12 DUP6 DUP2 DUP2 LT PUSH2 0x37D JUMPI PUSH2 0x37C PUSH2 0xD36 JUMP JUMPDEST JUMPDEST SWAP1 POP PUSH1 0x20 MUL ADD CALLDATALOAD PUSH2 0x7DF JUMP JUMPDEST ISZERO PUSH2 0x3C9 JUMPI DUP10 DUP10 DUP4 DUP2 DUP2 LT PUSH2 0x3A1 JUMPI PUSH2 0x3A0 PUSH2 0xD36 JUMP JUMPDEST JUMPDEST SWAP1 POP PUSH1 0x20 MUL ADD CALLDATALOAD DUP2 PUSH1 0x20 ADD MLOAD PUSH2 0x3B7 SWAP2 SWAP1 PUSH2 0xEBA JUMP JUMPDEST DUP4 PUSH2 0x3C2 SWAP2 SWAP1 PUSH2 0xEED JUMP JUMPDEST SWAP3 POP PUSH2 0x3DC JUMP JUMPDEST DUP1 PUSH1 0x20 ADD MLOAD DUP4 PUSH2 0x3D9 SWAP2 SWAP1 PUSH2 0xEED JUMP JUMPDEST SWAP3 POP JUMPDEST PUSH2 0x3F4 JUMP JUMPDEST DUP1 PUSH1 0x20 ADD MLOAD DUP4 PUSH2 0x3F1 SWAP2 SWAP1 PUSH2 0xEED JUMP JUMPDEST SWAP3 POP JUMPDEST JUMPDEST PUSH0 PUSH0 SHL PUSH1 0x4 PUSH0 CALLER PUSH20 0xFFFFFFFFFFFFFFFFFFFFFFFFFFFFFFFFFFFFFFFF AND PUSH20 0xFFFFFFFFFFFFFFFFFFFFFFFFFFFFFFFFFFFFFFFF AND DUP2 MSTORE PUSH1 0x20 ADD SWAP1 DUP2 MSTORE PUSH1 0x20 ADD PUSH0 KECCAK256 DUP4 DUP2 SLOAD DUP2 LT PUSH2 0x447 JUMPI PUSH2 0x446 PUSH2 0xD36 JUMP JUMPDEST JUMPDEST SWAP1 PUSH0 MSTORE PUSH1 0x20 PUSH0 KECCAK256 SWAP1 PUSH1 0x2 MUL ADD PUSH0 ADD DUP2 SWAP1 SSTORE POP POP DUP1 DUP1 PUSH1 0x1 ADD SWAP2 POP POP PUSH2 0x1FB JUMP JUMPDEST POP PUSH0 CALLER PUSH20 0xFFFFFFFFFFFFFFFFFFFFFFFFFFFFFFFFFFFFFFFF AND DUP3 PUSH1 0x40 MLOAD PUSH2 0x48D SWAP1 PUSH2 0xF4D JUMP JUMPDEST PUSH0 PUSH1 0x40 MLOAD DUP1 DUP4 SUB DUP2 DUP6 DUP8 GAS CALL SWAP3 POP POP POP RETURNDATASIZE DUP1 PUSH0 DUP2 EQ PUSH2 0x4C7 JUMPI PUSH1 0x40 MLOAD SWAP2 POP PUSH1 0x1F NOT PUSH1 0x3F RETURNDATASIZE ADD AND DUP3 ADD PUSH1 0x40 MSTORE RETURNDATASIZE DUP3 MSTORE RETURNDATASIZE PUSH0 PUSH1 0x20 DUP5 ADD RETURNDATACOPY PUSH2 0x4CC JUMP JUMPDEST PUSH1 0x60 SWAP2 POP JUMPDEST POP POP SWAP1 POP DUP1 PUSH2 0x510 JUMPI PUSH1 0x40 MLOAD PUSH32 0x8C379A000000000000000000000000000000000000000000000000000000000 DUP2 MSTORE PUSH1 0x4 ADD PUSH2 0x507 SWAP1 PUSH2 0xFAB JUMP JUMPDEST PUSH1 0x40 MLOAD DUP1 SWAP2 SUB SWAP1 REVERT JUMPDEST POP POP POP POP POP POP POP POP POP JUMP JUMPDEST PUSH1 0x1 SLOAD TIMESTAMP LT PUSH2 0x55F JUMPI PUSH1 0x40 MLOAD PUSH32 0x8C379A000000000000000000000000000000000000000000000000000000000 DUP2 MSTORE PUSH1 0x4 ADD PUSH2 0x556 SWAP1 PUSH2 0x1013 JUMP JUMPDEST PUSH1 0x40 MLOAD DUP1 SWAP2 SUB SWAP1 REVERT JUMPDEST PUSH1 0x4 PUSH0 CALLER PUSH20 0xFFFFFFFFFFFFFFFFFFFFFFFFFFFFFFFFFFFFFFFF AND PUSH20 0xFFFFFFFFFFFFFFFFFFFFFFFFFFFFFFFFFFFFFFFF AND DUP2 MSTORE PUSH1 0x20 ADD SWAP1 DUP2 MSTORE PUSH1 0x20 ADD PUSH0 KECCAK256 PUSH1 0x40 MLOAD DUP1 PUSH1 0x40 ADD PUSH1 0x40 MSTORE DUP1 DUP4 DUP2 MSTORE PUSH1 0x20 ADD CALLVALUE DUP2 MSTORE POP SWAP1 DUP1 PUSH1 0x1 DUP2 SLOAD ADD DUP1 DUP3 SSTORE DUP1 SWAP2 POP POP PUSH1 0x1 SWAP1 SUB SWAP1 PUSH0 MSTORE PUSH1 0x20 PUSH0 KECCAK256 SWAP1 PUSH1 0x2 MUL ADD PUSH0 SWAP1 SWAP2 SWAP1 SWAP2 SWAP1 SWAP2 POP PUSH0 DUP3 ADD MLOAD DUP2 PUSH0 ADD SSTORE PUSH1 0x20 DUP3 ADD MLOAD DUP2 PUSH1 0x1 ADD SSTORE POP POP POP JUMP JUMPDEST PUSH0 ISZERO ISZERO PUSH1 0x3 PUSH0 SWAP1 SLOAD SWAP1 PUSH2 0x100 EXP SWAP1 DIV PUSH1 0xFF AND ISZERO ISZERO EQ PUSH2 0x642 JUMPI PUSH1 0x40 MLOAD PUSH32 0x8C379A000000000000000000000000000000000000000000000000000000000 DUP2 MSTORE PUSH1 0x4 ADD PUSH2 0x639 SWAP1 PUSH2 0x107B JUMP JUMPDEST PUSH1 0x40 MLOAD DUP1 SWAP2 SUB SWAP1 REVERT JUMPDEST PUSH1 0x2 SLOAD TIMESTAMP LT ISZERO PUSH2 0x687 JUMPI PUSH1 0x40 MLOAD PUSH32 0x8C379A000000000000000000000000000000000000000000000000000000000 DUP2 MSTORE PUSH1 0x4 ADD PUSH2 0x67E SWAP1 PUSH2 0x10E3 JUMP JUMPDEST PUSH1 0x40 MLOAD DUP1 SWAP2 SUB SWAP1 REVERT JUMPDEST PUSH0 PUSH0 PUSH0 SWAP1 SLOAD SWAP1 PUSH2 0x100 EXP SWAP1 DIV PUSH20 0xFFFFFFFFFFFFFFFFFFFFFFFFFFFFFFFFFFFFFFFF AND PUSH20 0xFFFFFFFFFFFFFFFFFFFFFFFFFFFFFFFFFFFFFFFF AND PUSH1 0x5 SLOAD PUSH1 0x40 MLOAD PUSH2 0x6CE SWAP1 PUSH2 0xF4D JUMP JUMPDEST PUSH0 PUSH1 0x40 MLOAD DUP1 DUP4 SUB DUP2 DUP6 DUP8 GAS CALL SWAP3 POP POP POP RETURNDATASIZE DUP1 PUSH0 DUP2 EQ PUSH2 0x708 JUMPI PUSH1 0x40 MLOAD SWAP2 POP PUSH1 0x1F NOT PUSH1 0x3F RETURNDATASIZE ADD AND DUP3 ADD PUSH1 0x40 MSTORE RETURNDATASIZE DUP3 MSTORE RETURNDATASIZE PUSH0 PUSH1 0x20 DUP5 ADD RETURNDATACOPY PUSH2 0x70D JUMP JUMPDEST PUSH1 0x60 SWAP2 POP JUMPDEST POP POP SWAP1 POP DUP1 PUSH2 0x751 JUMPI PUSH1 0x40 MLOAD PUSH32 0x8C379A000000000000000000000000000000000000000000000000000000000 DUP2 MSTORE PUSH1 0x4 ADD PUSH2 0x748 SWAP1 PUSH2 0x114B JUMP JUMPDEST PUSH1 0x40 MLOAD DUP1 SWAP2 SUB SWAP1 REVERT JUMPDEST PUSH1 0x1 PUSH1 0x3 PUSH0 PUSH2 0x100 EXP DUP2 SLOAD DUP2 PUSH1 0xFF MUL NOT AND SWAP1 DUP4 ISZERO ISZERO MUL OR SWAP1 SSTORE POP PUSH1 0x6 PUSH0 SWAP1 SLOAD SWAP1 PUSH2 0x100 EXP SWAP1 DIV PUSH20 0xFFFFFFFFFFFFFFFFFFFFFFFFFFFFFFFFFFFFFFFF AND PUSH20 0xFFFFFFFFFFFFFFFFFFFFFFFFFFFFFFFFFFFFFFFF AND PUSH32 0x6E0E2174DBF7B77C08B6F9A2799B9FEDA84A6D54A5644864582040100A47D4C5 PUSH1 0x5 SLOAD PUSH1 0x40 MLOAD PUSH2 0x7D4 SWAP2 SWAP1 PUSH2 0x1178 JUMP JUMPDEST PUSH1 0x40 MLOAD DUP1 SWAP2 SUB SWAP1 LOG2 POP JUMP JUMPDEST PUSH0 PUSH1 0x5 SLOAD DUP3 GT ISZERO PUSH2 0x95B JUMPI PUSH0 PUSH20 0xFFFFFFFFFFFFFFFFFFFFFFFFFFFFFFFFFFFFFFFF AND PUSH1 0x6 PUSH0 SWAP1 SLOAD SWAP1 PUSH2 0x100 EXP SWAP1 DIV PUSH20 0xFFFFFFFFFFFFFFFFFFFFFFFFFFFFFFFFFFFFFFFF AND PUSH20 0xFFFFFFFFFFFFFFFFFFFFFFFFFFFFFFFFFFFFFFFF AND EQ PUSH2 0x90B JUMPI PUSH0 PUSH1 0x6 PUSH0 SWAP1 SLOAD SWAP1 PUSH2 0x100 EXP SWAP1 DIV PUSH20 0xFFFFFFFFFFFFFFFFFFFFFFFFFFFFFFFFFFFFFFFF AND PUSH20 0xFFFFFFFFFFFFFFFFFFFFFFFFFFFFFFFFFFFFFFFF AND PUSH1 0x5 SLOAD PUSH1 0x40 MLOAD PUSH2 0x886 SWAP1 PUSH2 0xF4D JUMP JUMPDEST PUSH0 PUSH1 0x40 MLOAD DUP1 DUP4 SUB DUP2 DUP6 DUP8 GAS CALL SWAP3 POP POP POP RETURNDATASIZE DUP1 PUSH0 DUP2 EQ PUSH2 0x8C0 JUMPI PUSH1 0x40 MLOAD SWAP2 POP PUSH1 0x1F NOT PUSH1 0x3F RETURNDATASIZE ADD AND DUP3 ADD PUSH1 0x40 MSTORE RETURNDATASIZE DUP3 MSTORE RETURNDATASIZE PUSH0 PUSH1 0x20 DUP5 ADD RETURNDATACOPY PUSH2 0x8C5 JUMP JUMPDEST PUSH1 0x60 SWAP2 POP JUMPDEST POP POP SWAP1 POP DUP1 PUSH2 0x909 JUMPI PUSH1 0x40 MLOAD PUSH32 0x8C379A000000000000000000000000000000000000000000000000000000000 DUP2 MSTORE PUSH1 0x4 ADD PUSH2 0x900 SWAP1 PUSH2 0x11DB JUMP JUMPDEST PUSH1 0x40 MLOAD DUP1 SWAP2 SUB SWAP1 REVERT JUMPDEST POP JUMPDEST DUP2 PUSH1 0x5 DUP2 SWAP1 SSTORE POP DUP3 PUSH1 0x6 PUSH0 PUSH2 0x100 EXP DUP2 SLOAD DUP2 PUSH20 0xFFFFFFFFFFFFFFFFFFFFFFFFFFFFFFFFFFFFFFFF MUL NOT AND SWAP1 DUP4 PUSH20 0xFFFFFFFFFFFFFFFFFFFFFFFFFFFFFFFFFFFFFFFF AND MUL OR SWAP1 SSTORE POP PUSH1 0x1 SWAP1 POP PUSH2 0x95F JUMP JUMPDEST PUSH0 SWAP1 POP JUMPDEST SWAP3 SWAP2 POP POP JUMP JUMPDEST PUSH0 PUSH0 REVERT JUMPDEST PUSH0 PUSH0 REVERT JUMPDEST PUSH0 PUSH0 REVERT JUMPDEST PUSH0 PUSH0 REVERT JUMPDEST PUSH0 PUSH0 REVERT JUMPDEST PUSH0 PUSH0 DUP4 PUSH1 0x1F DUP5 ADD SLT PUSH2 0x98E JUMPI PUSH2 0x98D PUSH2 0x96D JUMP JUMPDEST JUMPDEST DUP3 CALLDATALOAD SWAP1 POP PUSH8 0xFFFFFFFFFFFFFFFF DUP2 GT ISZERO PUSH2 0x9AB JUMPI PUSH2 0x9AA PUSH2 0x971 JUMP JUMPDEST JUMPDEST PUSH1 0x20 DUP4 ADD SWAP2 POP DUP4 PUSH1 0x20 DUP3 MUL DUP4 ADD GT ISZERO PUSH2 0x9C7 JUMPI PUSH2 0x9C6 PUSH2 0x975 JUMP JUMPDEST JUMPDEST SWAP3 POP SWAP3 SWAP1 POP JUMP JUMPDEST PUSH0 PUSH0 DUP4 PUSH1 0x1F DUP5 ADD SLT PUSH2 0x9E3 JUMPI PUSH2 0x9E2 PUSH2 0x96D JUMP JUMPDEST JUMPDEST DUP3 CALLDATALOAD SWAP1 POP PUSH8 0xFFFFFFFFFFFFFFFF DUP2 GT ISZERO PUSH2 0xA00 JUMPI PUSH2 0x9FF PUSH2 0x971 JUMP JUMPDEST JUMPDEST PUSH1 0x20 DUP4 ADD SWAP2 POP DUP4 PUSH1 0x20 DUP3 MUL DUP4 ADD GT ISZERO PUSH2 0xA1C JUMPI PUSH2 0xA1B PUSH2 0x975 JUMP JUMPDEST JUMPDEST SWAP3 POP SWAP3 SWAP1 POP JUMP JUMPDEST PUSH0 PUSH0 DUP4 PUSH1 0x1F DUP5 ADD SLT PUSH2 0xA38 JUMPI PUSH2 0xA37 PUSH2 0x96D JUMP JUMPDEST JUMPDEST DUP3 CALLDATALOAD SWAP1 POP PUSH8 0xFFFFFFFFFFFFFFFF DUP2 GT ISZERO PUSH2 0xA55 JUMPI PUSH2 0xA54 PUSH2 0x971 JUMP JUMPDEST JUMPDEST PUSH1 0x20 DUP4 ADD SWAP2 POP DUP4 PUSH1 0x20 DUP3 MUL DUP4 ADD GT ISZERO PUSH2 0xA71 JUMPI PUSH2 0xA70 PUSH2 0x975 JUMP JUMPDEST JUMPDEST SWAP3 POP SWAP3 SWAP1 POP JUMP JUMPDEST PUSH0 PUSH0 PUSH0 PUSH0 PUSH0 PUSH0 PUSH1 0x60 DUP8 DUP10 SUB SLT ISZERO PUSH2 0xA92 JUMPI PUSH2 0xA91 PUSH2 0x965 JUMP JUMPDEST JUMPDEST PUSH0 DUP8 ADD CALLDATALOAD PUSH8 0xFFFFFFFFFFFFFFFF DUP2 GT ISZERO PUSH2 0xAAF JUMPI PUSH2 0xAAE PUSH2 0x969 JUMP JUMPDEST JUMPDEST PUSH2 0xABB DUP10 DUP3 DUP11 ADD PUSH2 0x979 JUMP JUMPDEST SWAP7 POP SWAP7 POP POP PUSH1 0x20 DUP8 ADD CALLDATALOAD PUSH8 0xFFFFFFFFFFFFFFFF DUP2 GT ISZERO PUSH2 0xADE JUMPI PUSH2 0xADD PUSH2 0x969 JUMP JUMPDEST JUMPDEST PUSH2 0xAEA DUP10 DUP3 DUP11 ADD PUSH2 0x9CE JUMP JUMPDEST SWAP5 POP SWAP5 POP POP PUSH1 0x40 DUP8 ADD CALLDATALOAD PUSH8 0xFFFFFFFFFFFFFFFF DUP2 GT ISZERO PUSH2 0xB0D JUMPI PUSH2 0xB0C PUSH2 0x969 JUMP JUMPDEST JUMPDEST PUSH2 0xB19 DUP10 DUP3 DUP11 ADD PUSH2 0xA23 JUMP JUMPDEST SWAP3 POP SWAP3 POP POP SWAP3 SWAP6 POP SWAP3 SWAP6 POP SWAP3 SWAP6 JUMP JUMPDEST PUSH0 DUP2 SWAP1 POP SWAP2 SWAP1 POP JUMP JUMPDEST PUSH2 0xB3A DUP2 PUSH2 0xB28 JUMP JUMPDEST DUP2 EQ PUSH2 0xB44 JUMPI PUSH0 PUSH0 REVERT JUMPDEST POP JUMP JUMPDEST PUSH0 DUP2 CALLDATALOAD SWAP1 POP PUSH2 0xB55 DUP2 PUSH2 0xB31 JUMP JUMPDEST SWAP3 SWAP2 POP POP JUMP JUMPDEST PUSH0 PUSH1 0x20 DUP3 DUP5 SUB SLT ISZERO PUSH2 0xB70 JUMPI PUSH2 0xB6F PUSH2 0x965 JUMP JUMPDEST JUMPDEST PUSH0 PUSH2 0xB7D DUP5 DUP3 DUP6 ADD PUSH2 0xB47 JUMP JUMPDEST SWAP2 POP POP SWAP3 SWAP2 POP POP JUMP JUMPDEST PUSH0 DUP3 DUP3 MSTORE PUSH1 0x20 DUP3 ADD SWAP1 POP SWAP3 SWAP2 POP POP JUMP JUMPDEST PUSH32 0x6E6F742072657665616C2074696D650000000000000000000000000000000000 PUSH0 DUP3 ADD MSTORE POP JUMP JUMPDEST PUSH0 PUSH2 0xBCA PUSH1 0xF DUP4 PUSH2 0xB86 JUMP JUMPDEST SWAP2 POP PUSH2 0xBD5 DUP3 PUSH2 0xB96 JUMP JUMPDEST PUSH1 0x20 DUP3 ADD SWAP1 POP SWAP2 SWAP1 POP JUMP JUMPDEST PUSH0 PUSH1 0x20 DUP3 ADD SWAP1 POP DUP2 DUP2 SUB PUSH0 DUP4 ADD MSTORE PUSH2 0xBF7 DUP2 PUSH2 0xBBE JUMP JUMPDEST SWAP1 POP SWAP2 SWAP1 POP JUMP JUMPDEST PUSH32 0x56616C756573206C656E677468206D69736D6174636800000000000000000000 PUSH0 DUP3 ADD MSTORE POP JUMP JUMPDEST PUSH0 PUSH2 0xC32 PUSH1 0x16 DUP4 PUSH2 0xB86 JUMP JUMPDEST SWAP2 POP PUSH2 0xC3D DUP3 PUSH2 0xBFE JUMP JUMPDEST PUSH1 0x20 DUP3 ADD SWAP1 POP SWAP2 SWAP1 POP JUMP JUMPDEST PUSH0 PUSH1 0x20 DUP3 ADD SWAP1 POP DUP2 DUP2 SUB PUSH0 DUP4 ADD MSTORE PUSH2 0xC5F DUP2 PUSH2 0xC26 JUMP JUMPDEST SWAP1 POP SWAP2 SWAP1 POP JUMP JUMPDEST PUSH32 0x46616B6573206C656E677468206D69736D617463680000000000000000000000 PUSH0 DUP3 ADD MSTORE POP JUMP JUMPDEST PUSH0 PUSH2 0xC9A PUSH1 0x15 DUP4 PUSH2 0xB86 JUMP JUMPDEST SWAP2 POP PUSH2 0xCA5 DUP3 PUSH2 0xC66 JUMP JUMPDEST PUSH1 0x20 DUP3 ADD SWAP1 POP SWAP2 SWAP1 POP JUMP JUMPDEST PUSH0 PUSH1 0x20 DUP3 ADD SWAP1 POP DUP2 DUP2 SUB PUSH0 DUP4 ADD MSTORE PUSH2 0xCC7 DUP2 PUSH2 0xC8E JUMP JUMPDEST SWAP1 POP SWAP2 SWAP1 POP JUMP JUMPDEST PUSH32 0x53656372657473206C656E677468206D69736D61746368000000000000000000 PUSH0 DUP3 ADD MSTORE POP JUMP JUMPDEST PUSH0 PUSH2 0xD02 PUSH1 0x17 DUP4 PUSH2 0xB86 JUMP JUMPDEST SWAP2 POP PUSH2 0xD0D DUP3 PUSH2 0xCCE JUMP JUMPDEST PUSH1 0x20 DUP3 ADD SWAP1 POP SWAP2 SWAP1 POP JUMP JUMPDEST PUSH0 PUSH1 0x20 DUP3 ADD SWAP1 POP DUP2 DUP2 SUB PUSH0 DUP4 ADD MSTORE PUSH2 0xD2F DUP2 PUSH2 0xCF6 JUMP JUMPDEST SWAP1 POP SWAP2 SWAP1 POP JUMP JUMPDEST PUSH32 0x4E487B7100000000000000000000000000000000000000000000000000000000 PUSH0 MSTORE PUSH1 0x32 PUSH1 0x4 MSTORE PUSH1 0x24 PUSH0 REVERT JUMPDEST PUSH0 DUP2 ISZERO ISZERO SWAP1 POP SWAP2 SWAP1 POP JUMP JUMPDEST PUSH2 0xD77 DUP2 PUSH2 0xD63 JUMP JUMPDEST DUP2 EQ PUSH2 0xD81 JUMPI PUSH0 PUSH0 REVERT JUMPDEST POP JUMP JUMPDEST PUSH0 DUP2 CALLDATALOAD SWAP1 POP PUSH2 0xD92 DUP2 PUSH2 0xD6E JUMP JUMPDEST SWAP3 SWAP2 POP POP JUMP JUMPDEST PUSH0 PUSH1 0x20 DUP3 DUP5 SUB SLT ISZERO PUSH2 0xDAD JUMPI PUSH2 0xDAC PUSH2 0x965 JUMP JUMPDEST JUMPDEST PUSH0 PUSH2 0xDBA DUP5 DUP3 DUP6 ADD PUSH2 0xD84 JUMP JUMPDEST SWAP2 POP POP SWAP3 SWAP2 POP POP JUMP JUMPDEST PUSH0 DUP2 SWAP1 POP SWAP2 SWAP1 POP JUMP JUMPDEST PUSH0 DUP2 SWAP1 POP SWAP2 SWAP1 POP JUMP JUMPDEST PUSH2 0xDE6 PUSH2 0xDE1 DUP3 PUSH2 0xDC3 JUMP JUMPDEST PUSH2 0xDCC JUMP JUMPDEST DUP3 MSTORE POP POP JUMP JUMPDEST PUSH0 DUP2 PUSH1 0xF8 SHL SWAP1 POP SWAP2 SWAP1 POP JUMP JUMPDEST PUSH0 PUSH2 0xE02 DUP3 PUSH2 0xDEC JUMP JUMPDEST SWAP1 POP SWAP2 SWAP1 POP JUMP JUMPDEST PUSH0 PUSH2 0xE13 DUP3 PUSH2 0xDF8 JUMP JUMPDEST SWAP1 POP SWAP2 SWAP1 POP JUMP JUMPDEST PUSH2 0xE2B PUSH2 0xE26 DUP3 PUSH2 0xD63 JUMP JUMPDEST PUSH2 0xE09 JUMP JUMPDEST DUP3 MSTORE POP POP JUMP JUMPDEST PUSH0 DUP2 SWAP1 POP SWAP2 SWAP1 POP JUMP JUMPDEST PUSH2 0xE4B PUSH2 0xE46 DUP3 PUSH2 0xB28 JUMP JUMPDEST PUSH2 0xE31 JUMP JUMPDEST DUP3 MSTORE POP POP JUMP JUMPDEST PUSH0 PUSH2 0xE5C DUP3 DUP7 PUSH2 0xDD5 JUMP JUMPDEST PUSH1 0x20 DUP3 ADD SWAP2 POP PUSH2 0xE6C DUP3 DUP6 PUSH2 0xE1A JUMP JUMPDEST PUSH1 0x1 DUP3 ADD SWAP2 POP PUSH2 0xE7C DUP3 DUP5 PUSH2 0xE3A JUMP JUMPDEST PUSH1 0x20 DUP3 ADD SWAP2 POP DUP2 SWAP1 POP SWAP5 SWAP4 POP POP POP POP JUMP JUMPDEST PUSH32 0x4E487B7100000000000000000000000000000000000000000000000000000000 PUSH0 MSTORE PUSH1 0x11 PUSH1 0x4 MSTORE PUSH1 0x24 PUSH0 REVERT JUMPDEST PUSH0 PUSH2 0xEC4 DUP3 PUSH2 0xDC3 JUMP JUMPDEST SWAP2 POP PUSH2 0xECF DUP4 PUSH2 0xDC3 JUMP JUMPDEST SWAP3 POP DUP3 DUP3 SUB SWAP1 POP DUP2 DUP2 GT ISZERO PUSH2 0xEE7 JUMPI PUSH2 0xEE6 PUSH2 0xE8D JUMP JUMPDEST JUMPDEST SWAP3 SWAP2 POP POP JUMP JUMPDEST PUSH0 PUSH2 0xEF7 DUP3 PUSH2 0xDC3 JUMP JUMPDEST SWAP2 POP PUSH2 0xF02 DUP4 PUSH2 0xDC3 JUMP JUMPDEST SWAP3 POP DUP3 DUP3 ADD SWAP1 POP DUP1 DUP3 GT ISZERO PUSH2 0xF1A JUMPI PUSH2 0xF19 PUSH2 0xE8D JUMP JUMPDEST JUMPDEST SWAP3 SWAP2 POP POP JUMP JUMPDEST PUSH0 DUP2 SWAP1 POP SWAP3 SWAP2 POP POP JUMP JUMPDEST POP JUMP JUMPDEST PUSH0 PUSH2 0xF38 PUSH0 DUP4 PUSH2 0xF20 JUMP JUMPDEST SWAP2 POP PUSH2 0xF43 DUP3 PUSH2 0xF2A JUMP JUMPDEST PUSH0 DUP3 ADD SWAP1 POP SWAP2 SWAP1 POP JUMP JUMPDEST PUSH0 PUSH2 0xF57 DUP3 PUSH2 0xF2D JUMP JUMPDEST SWAP2 POP DUP2 SWAP1 POP SWAP2 SWAP1 POP JUMP JUMPDEST PUSH32 0x7472616E73616374696F6E206E6F742073756363657366756C00000000000000 PUSH0 DUP3 ADD MSTORE POP JUMP JUMPDEST PUSH0 PUSH2 0xF95 PUSH1 0x19 DUP4 PUSH2 0xB86 JUMP JUMPDEST SWAP2 POP PUSH2 0xFA0 DUP3 PUSH2 0xF61 JUMP JUMPDEST PUSH1 0x20 DUP3 ADD SWAP1 POP SWAP2 SWAP1 POP JUMP JUMPDEST PUSH0 PUSH1 0x20 DUP3 ADD SWAP1 POP DUP2 DUP2 SUB PUSH0 DUP4 ADD MSTORE PUSH2 0xFC2 DUP2 PUSH2 0xF89 JUMP JUMPDEST SWAP1 POP SWAP2 SWAP1 POP JUMP JUMPDEST PUSH32 0x62696420656E6465640000000000000000000000000000000000000000000000 PUSH0 DUP3 ADD MSTORE POP JUMP JUMPDEST PUSH0 PUSH2 0xFFD PUSH1 0x9 DUP4 PUSH2 0xB86 JUMP JUMPDEST SWAP2 POP PUSH2 0x1008 DUP3 PUSH2 0xFC9 JUMP JUMPDEST PUSH1 0x20 DUP3 ADD SWAP1 POP SWAP2 SWAP1 POP JUMP JUMPDEST PUSH0 PUSH1 0x20 DUP3 ADD SWAP1 POP DUP2 DUP2 SUB PUSH0 DUP4 ADD MSTORE PUSH2 0x102A DUP2 PUSH2 0xFF1 JUMP JUMPDEST SWAP1 POP SWAP2 SWAP1 POP JUMP JUMPDEST PUSH32 0x41756374696F6E20616C726561647920656E6465640000000000000000000000 PUSH0 DUP3 ADD MSTORE POP JUMP JUMPDEST PUSH0 PUSH2 0x1065 PUSH1 0x15 DUP4 PUSH2 0xB86 JUMP JUMPDEST SWAP2 POP PUSH2 0x1070 DUP3 PUSH2 0x1031 JUMP JUMPDEST PUSH1 0x20 DUP3 ADD SWAP1 POP SWAP2 SWAP1 POP JUMP JUMPDEST PUSH0 PUSH1 0x20 DUP3 ADD SWAP1 POP DUP2 DUP2 SUB PUSH0 DUP4 ADD MSTORE PUSH2 0x1092 DUP2 PUSH2 0x1059 JUMP JUMPDEST SWAP1 POP SWAP2 SWAP1 POP JUMP JUMPDEST PUSH32 0x41756374696F6E206E6F7420656E646564207965740000000000000000000000 PUSH0 DUP3 ADD MSTORE POP JUMP JUMPDEST PUSH0 PUSH2 0x10CD PUSH1 0x15 DUP4 PUSH2 0xB86 JUMP JUMPDEST SWAP2 POP PUSH2 0x10D8 DUP3 PUSH2 0x1099 JUMP JUMPDEST PUSH1 0x20 DUP3 ADD SWAP1 POP SWAP2 SWAP1 POP JUMP JUMPDEST PUSH0 PUSH1 0x20 DUP3 ADD SWAP1 POP DUP2 DUP2 SUB PUSH0 DUP4 ADD MSTORE PUSH2 0x10FA DUP2 PUSH2 0x10C1 JUMP JUMPDEST SWAP1 POP SWAP2 SWAP1 POP JUMP JUMPDEST PUSH32 0x7472616E7366657220756E7375636365737366756C0000000000000000000000 PUSH0 DUP3 ADD MSTORE POP JUMP JUMPDEST PUSH0 PUSH2 0x1135 PUSH1 0x15 DUP4 PUSH2 0xB86 JUMP JUMPDEST SWAP2 POP PUSH2 0x1140 DUP3 PUSH2 0x1101 JUMP JUMPDEST PUSH1 0x20 DUP3 ADD SWAP1 POP SWAP2 SWAP1 POP JUMP JUMPDEST PUSH0 PUSH1 0x20 DUP3 ADD SWAP1 POP DUP2 DUP2 SUB PUSH0 DUP4 ADD MSTORE PUSH2 0x1162 DUP2 PUSH2 0x1129 JUMP JUMPDEST SWAP1 POP SWAP2 SWAP1 POP JUMP JUMPDEST PUSH2 0x1172 DUP2 PUSH2 0xDC3 JUMP JUMPDEST DUP3 MSTORE POP POP JUMP JUMPDEST PUSH0 PUSH1 0x20 DUP3 ADD SWAP1 POP PUSH2 0x118B PUSH0 DUP4 ADD DUP5 PUSH2 0x1169 JUMP JUMPDEST SWAP3 SWAP2 POP POP JUMP JUMPDEST PUSH32 0x526566756E64206661696C656400000000000000000000000000000000000000 PUSH0 DUP3 ADD MSTORE POP JUMP JUMPDEST PUSH0 PUSH2 0x11C5 PUSH1 0xD DUP4 PUSH2 0xB86 JUMP JUMPDEST SWAP2 POP PUSH2 0x11D0 DUP3 PUSH2 0x1191 JUMP JUMPDEST PUSH1 0x20 DUP3 ADD SWAP1 POP SWAP2 SWAP1 POP JUMP JUMPDEST PUSH0 PUSH1 0x20 DUP3 ADD SWAP1 POP DUP2 DUP2 SUB PUSH0 DUP4 ADD MSTORE PUSH2 0x11F2 DUP2 PUSH2 0x11B9 JUMP JUMPDEST SWAP1 POP SWAP2 SWAP1 POP JUMP INVALID LOG2 PUSH5 0x6970667358 0x22 SLT KECCAK256 0xCB SWAP8 0xAF 0x4E DUP2 PUSH9 0x288438AD5C9F041E19 0xD PUSH1 0xD9 0xA5 0x4D 0x4E CALLCODE 0x24 0xDA 0xD2 0xE3 0xCA MULMOD SWAP15 0xF9 PUSH0 OR PUSH5 0x736F6C6343 STOP ADDMOD SHL STOP CALLER "
				},
				"gasEstimates": {
					"creation": {
						"codeDepositCost": "931000",
						"executionCost": "infinite",
						"totalCost": "infinite"
					},
					"external": {
						"bid(bytes32)": "71216",
						"endAuction()": "infinite",
						"reveal(uint256[],bool[],bytes32[])": "infinite"
					},
					"internal": {
						"placeBid(address,uint256)": "infinite"
					}
				},
				"methodIdentifiers": {
					"bid(bytes32)": "957bb1e0",
					"endAuction()": "fe67a54b",
					"reveal(uint256[],bool[],bytes32[])": "900f080a"
				}
			},
			"storageLayout": {
				"storage": [
					{
						"astId": 8,
						"contract": "BlindAuction.sol:BlindAuction",
						"label": "beneficiary",
						"offset": 0,
						"slot": "0",
						"type": "t_address_payable"
					},
					{
						"astId": 10,
						"contract": "BlindAuction.sol:BlindAuction",
						"label": "biddingEnd",
						"offset": 0,
						"slot": "1",
						"type": "t_uint256"
					},
					{
						"astId": 12,
						"contract": "BlindAuction.sol:BlindAuction",
						"label": "revealEnd",
						"offset": 0,
						"slot": "2",
						"type": "t_uint256"
					},
					{
						"astId": 14,
						"contract": "BlindAuction.sol:BlindAuction",
						"label": "ended",
						"offset": 0,
						"slot": "3",
						"type": "t_bool"
					},
					{
						"astId": 20,
						"contract": "BlindAuction.sol:BlindAuction",
						"label": "addressToBids",
						"offset": 0,
						"slot": "4",
						"type": "t_mapping(t_address,t_array(t_struct(Bid)6_storage)dyn_storage)"
					},
					{
						"astId": 22,
						"contract": "BlindAuction.sol:BlindAuction",
						"label": "highestBid",
						"offset": 0,
						"slot": "5",
						"type": "t_uint256"
					},
					{
						"astId": 24,
						"contract": "BlindAuction.sol:BlindAuction",
						"label": "highestBidder",
						"offset": 0,
						"slot": "6",
						"type": "t_address"
					}
				],
				"types": {
					"t_address": {
						"encoding": "inplace",
						"label": "address",
						"numberOfBytes": "20"
					},
					"t_address_payable": {
						"encoding": "inplace",
						"label": "address payable",
						"numberOfBytes": "20"
					},
					"t_array(t_struct(Bid)6_storage)dyn_storage": {
						"base": "t_struct(Bid)6_storage",
						"encoding": "dynamic_array",
						"label": "struct BlindAuction.Bid[]",
						"numberOfBytes": "32"
					},
					"t_bool": {
						"encoding": "inplace",
						"label": "bool",
						"numberOfBytes": "1"
					},
					"t_bytes32": {
						"encoding": "inplace",
						"label": "bytes32",
						"numberOfBytes": "32"
					},
					"t_mapping(t_address,t_array(t_struct(Bid)6_storage)dyn_storage)": {
						"encoding": "mapping",
						"key": "t_address",
						"label": "mapping(address => struct BlindAuction.Bid[])",
						"numberOfBytes": "32",
						"value": "t_array(t_struct(Bid)6_storage)dyn_storage"
					},
					"t_struct(Bid)6_storage": {
						"encoding": "inplace",
						"label": "struct BlindAuction.Bid",
						"members": [
							{
								"astId": 3,
								"contract": "BlindAuction.sol:BlindAuction",
								"label": "blindedBid",
								"offset": 0,
								"slot": "0",
								"type": "t_bytes32"
							},
							{
								"astId": 5,
								"contract": "BlindAuction.sol:BlindAuction",
								"label": "deposit",
								"offset": 0,
								"slot": "1",
								"type": "t_uint256"
							}
						],
						"numberOfBytes": "64"
					},
					"t_uint256": {
						"encoding": "inplace",
						"label": "uint256",
						"numberOfBytes": "32"
					}
				}
			},
			"userdoc": {
				"kind": "user",
				"methods": {},
				"version": 1
			}
		}
	}
}